:020000040800F2
:1000000080070020A10100086D2C00084122000893
:10001000D52B0008AD0700089D3200080000000045
:10002000000000000000000000000000712C00082B
:10003000350B0008000000006F2C0008732C00082E
:10004000BB010008BB010008BB010008BB010008A0
:10005000BB010008BB010008BB010008BB01000890
:10006000BB010008BB010008BB010008BB01000880
:10007000BB010008BB010008BB010008BB01000870
:10008000BB010008BB010008BB010008BB01000860
:10009000BB010008BB010008BB010008390B0008C8
:1000A000BB010008BB010008BB010008BB01000840
:1000B000BB0100084D2D0008BB010008BB01000872
:1000C000BB010008BB010008BB010008BB01000820
:1000D000BB010008BB010008BB010008BB01000810
:1000E000BB010008BB010008BB010008BB01000800
:1000F000BB010008BB010008BB010008BB010008F0
:10010000BB010008BB010008BB010008BB010008DF
:10011000BB010008BB010008BB010008BB010008CF
:10012000BB010008BB010008BB010008BB010008BF
:10013000BB010008BB010008BB010008BB010008AF
:10014000BB010008BB010008BB010008BB0100089F
:10015000BB010008BB010008BB010008BB0100088F
:10016000BB010008BB010008BB010008BB0100087F
:10017000BB010008BB010008BB0100080000000033
:10018000BB010008BB010008DFF810D000F0EAFA5C
:10019000004800477D380008AFF30080800700204A
:1001A0000648804706480047FEE7FEE7FEE7FEE711
:1001B000FEE7FEE7FEE7FEE7FEE7FEE7312D00087B
:1001C000890100082DE9F05F0546002092469B4614
:1001D00088460646814640241BE02846414647465D
:1001E000224600F0EAF853465A46C01A914110D30D
:1001F00011461846224600F0D1F82D1A67EB010887
:100200004F4622460120002100F0C8F817EB0009F4
:100210004E41201EA4F10104DFDC484631462A4647
:100220004346BDE8F09FD2B201E000F8012B491E21
:10023000FBD270470022F6E710B513460A46044683
:100240001946FFF7F0FF204610BD2DE9F04D81EA79
:10025000030404F0004B21F0004514464FF0000A5F
:1002600023F0004150EA050220D054EA01021DD0DB
:10027000C5F30A570246C5F31303C1F31300C1F3D4
:100280000A5640F4801543F48013A7EB0608101BB0
:10029000D64608F2FD3873EB050002D308F10108D9
:1002A00001E092185B41B8F1000F03DA002001462B
:1002B000BDE8F08D00204FF48011064684460EE024
:1002C000171B73EB050705D3121B63EB05030643EE
:1002D0004CEA010C49084FEA300092185B4150EAA1
:1002E0000107EDD152EA030012D082EA040083EA4A
:1002F0000501084305D0101BAB4106D201220023A3
:1003000006E000224FF0004302E06FF001025310BC
:100310001AEB06004CEB085110EB0A0041EB0B0105
:10032000BDE8F04D00F090B80EB5C10F80EAE07066
:100330000844CA07002140F233438DE80E000A4604
:100340000B4600F090F803B000BD0EB540F233410B
:1003500002910021CDE900110A460B4600F083F816
:1003600003B000BD01F0004330B421F0004150EA79
:10037000010206D00A0DA2F56072C1F31301002A32
:1003800002DC30BC00207047440F44EAC104C100C5
:10039000E01830BC00EBC25000F01FB8202A04DB8C
:1003A000203A00FA02F1002070479140C2F1200388
:1003B00020FA03F3194390407047202A04DB203AC7
:1003C00021FA02F00021704721FA02F3D040C2F175
:1003D000200291400843194670470029A8BF704782
:1003E000401C490008BF20F00100704710B4B0FA6B
:1003F00080FC00FA0CF050EA010404BF10BC704706
:1004000049B1CCF1200421FA04F411FA0CF118BF1F
:10041000012121430843A3EB0C01CB1D4FEA0061EE
:100420004FEA102042BF002010BC704700EBC350C1
:1004300010440029A4BF10BC7047401C490008BFED
:1004400020F0010010BC704710B5141E73F10004B9
:1004500008DA401C41F1000192185B411A4301D1B6
:1004600020F0010010BD2DE9F04D92469B4611B1E0
:10047000B1FA81F202E0B0FA80F220329046FFF742
:100480008DFF04460F4640EA0A0041EA0B0153463D
:100490005A46084313D0114653EA010019D0C8F157
:1004A00040025046FFF789FF05460E465046594622
:1004B0004246FFF773FF084305D0012004E02046C1
:1004C0003946BDE8F08D0020054346EAE0762C432E
:1004D00037430A986305E40AA0EB08000022FD0AEE
:1004E00044EA47540A3002D500200146E9E70105F5
:1004F00010196941DDE9084500196941BDE8F04D71
:10050000A2E72DE9FE4F804681EA0300C00F0C46AA
:10051000009021F0004123F00045B8EB0200A94112
:1005200005D24046214690461C460B46024623F023
:100530000040104347D0270DC7F30A00C3F30A5108
:100540000290401A019040286BDAC3F3130040F484
:10055000801B0098924620B10023D2EB030A63EB84
:100560000B0B01985946C0F140025046FFF716FFA9
:1005700006460D4650465946019A00F005F910EB23
:1005800008006141002487EA115284EAE7731A43A4
:1005900040D0009A62B3019A012A4FEA075215DC53
:1005A000001B61EB02014FF0004202EA0752CDE965
:1005B0000042001C41F5801132462B46FFF753FFE5
:1005C00003B0BDE8F08F40462146F9E7001B61EB20
:1005D0000201001C41F5801300185B412018A2F5B0
:1005E000001747EB030140EAD570B6196D4111E0E1
:1005F0006D084FEA360645EAC0754FEA0752001B00
:1006000061EB0201001C41F5801149084FEA3000FE
:100610000019514132462B4603B0BDE8F04FFFF7B9
:1006200013BF0098012240000023D0EB020263EBCD
:10063000E073009821464FEAE074B8EB000061EBEC
:100640000401E9E783F000435BE781F0004158E7EC
:100650002DE9FE4F81EA030404F0004421F000413B
:1006600000944FF0000B23F0004350EA01045ED0E9
:1006700052EA03045BD0C3F30A54C1F30A552C4475
:10068000A4F2F3340194A0FB0254C1F3130141F42A
:100690008011C3F3130343F4801301FB024400FBF6
:1006A000034E840A970A44EA815447EA8357A4FB1D
:1006B000076802958D0A05FB07854FEA932C04FB1A
:1006C0000C542705029D4FEA065847EA1637B5EB4A
:1006D00008056EEB070C870E920E47EA811742EA77
:1006E0008312A7FB0201B6EB0B0164EB00042B0D98
:1006F00043EA0C335E1844EB1C50DA465146E7FBE4
:100700000201C5F313044FEA0B3343EA14534FEAD3
:100710000432019C43EA0603A4F10C040294009CF9
:10072000CDE900B4FFF79FFE03B0BDE8F08F0020D5
:100730000146F9E730B5041E71F1000404DB4FF007
:100740000044404264EB0101141E73F1000405DB18
:100750001C464FF00043524263EB04038B4208BF38
:10076000824230BD064C074D06E0E06840F00103D0
:1007700094E8070098471034AC42F6D3FFF708FD21
:10078000303B0008503B0008202A06DBCB17203AFC
:1007900041FA02F043EAE07306E041FA02F3D04086
:1007A000C2F12002914008431946704700BFFEE79E
:1007B00070B503460C46002016E0802111E000F0E1
:1007C00080051DB14506280E504001E04506280E63
:1007D0001D780D4005B150400D4601EBD576C6F3AE
:1007E00047010029EBD15B1C251EA4F10106F4B2E0
:1007F000E3D170BD10B504465148C08800EE100A20
:10080000B8EE400A4F48D0ED000AB4EEE00AF1EE2F
:1008100010FA44D24A48C08800EE100AB8EE400AE6
:100820004848D0ED020AB4EEE00AF1EE10FA36DDE7
:1008300024B945480078401C43490870022C04D173
:1008400041488078401C404988703F4800783D49C5
:10085000097C884205DC3C4880783A49097C88421A
:1008600012DD002002F0D2F9374800783549097CC2
:10087000884201DD052010BD334880783149097C6C
:10088000884201DD0720F6E72F48007808B10120F3
:10089000F1E72D488078002850D00320EBE7284866
:1008A000008900EE100AB8EE400A2648D0ED010A91
:1008B000B4EEE00AF1EE10FA40DD2148008900EEC6
:1008C000100AB8EE400A1F48D0ED030AB4EEE00A61
:1008D000F1EE10FA32D224B91B484078401C1A4974
:1008E0004870022C04D11848C078401C1649C870C2
:1008F000154840781349097C884205DC1248C078C5
:100900001049097C88420FDD0F4840780D49097C69
:10091000884201DD0620AEE70B48C0780949097C12
:10092000884201DD0820A6E70748407808B1022088
:10093000A1E70548C07808B104209CE700209AE7A9
:10094000C0000020D00000200100002010B53F4B67
:10095000A3F10C020F213E4802F024F93B4B5B1C33
:10096000A3F10B020F213A4802F036F937480C3850
:1009700000883849498A884206DC34480C38408867
:100980003449898A884202DD002002F03FF92F486D
:100990000C3800882F49498A884208DD2B480C38DA
:1009A00040882C49898A884201DD062010BD2748ED
:1009B0000C3800882749498A884201DD0320F5E781
:1009C00022480C3840882349898A884201DA042069
:1009D000ECE71E480C3800881E49098B884204DD6C
:1009E0001D480078401C1C49087018480C38408885
:1009F0001849498B884204DA17484078401C164948
:100A00004870154800781349097F88420ADD12486A
:100A100040781049497F884204DD002002F0F6F852
:100A20000320C3E70C48007820B10B48407808B198
:100A30000520BBE70848007808B10120B6E7064862
:100A4000407808B10220B1E70020AFE7CC000020D9
:100A5000F4000020D0000020050000203EB5052055
:100A60001E4B0622082100901D4801F0A9FC0446F7
:100A70000CB120463EBD052001AB062208210090A6
:100A8000174801F0DFFB04460CB12046F2E79DF861
:100A900004001249891F897988421BD19DF80500FD
:100AA0000E49891FC979884214D19DF806000B4967
:100AB000891F097A88420DD19DF807000749891FCF
:100AC000497A884206D19DF808000449891F897A2D
:100AD000884201D00320CDE70020CBE78E00002024
:100AE0002C01002010B51148406B1149C97F884284
:100AF00006DC0E48406B0E4991F82110884213DD48
:100B0000002002F083F80948406B0949C97F8842F8
:100B100001DD012010BD0548406B054991F8211009
:100B2000884201DD0220F5E70020F3E7F400002011
:100B3000D00000207047000010B5402000F040F8C1
:100B4000114B00220821114801F0F6FB0E480078F5
:100B5000002817DD0C4800780121B1EBD01F11D01F
:100B60000948407920F00200074948710846407959
:100B700020F0010048710846437905220821034806
:100B800001F06EFC10BD0000880000202C01002048
:100B90007047000008B50320054B50220821009043
:100BA000044801F04FFB044908700846007808BD6E
:100BB000BC0000202C010020000000207047000035
:100BC00010B5044604480068204020B10248046083
:100BD0002046FFF7F3FF10BD143C0140F8B5024674
:100BE0000B460025002400200021D6E0012606FA4D
:100BF00001F51E6806EA0504AC4274D11E7906F0C0
:100C00000306012E04D01E7906F00306022E13D12E
:100C100090684F000326BE40B0434F00DE68BE40E0
:100C200030439060506801268E40B0431E79C6F371
:100C300000168E40304350601E7906F00306032EE6
:100C400009D0D0684F000326BE40B0434F009E68D5
:100C5000BE403043D0601E7906F00306022E13D149
:100C6000CF0802F1200656F827004E07F70E0F2690
:100C7000BE40B0434F07FF0E1E69BE403043CF0851
:100C800002F1200646F8270010684F000326BE40F8
:100C9000B0431E7906F003064F00BE40304310609B
:100CA0005E6806F44036002E76D000BF002600961F
:100CB0003C4E366846F480463A4F3E603E463668C3
:100CC00006F48046009600BF00BF374E8F0856F8E6
:100CD00027008E07370F0F26BE40B043334EB24277
:100CE00002D1002624E057E0314EB24201D1012664
:100CF0001EE0304EB24201D1022619E02E4EB24221
:100D000001D1032614E02D4EB24201D104260FE09A
:100D10002B4EB24201D105260AE02A4EB24201D141
:100D2000062605E0284EB24201D1072600E008263B
:100D30008F073F0FBE4030431B4E8F0846F82700F9
:100D4000224E3068A0435E6806F4801606B1204348
:100D50001E4E3060361D3068A0435E6806F40016F3
:100D600006B12043194E361D3060184E361F3068CC
:100D7000A0435E6806F4003606B12043134E361FCA
:100D80003060361F3068A0435E6806F4803606B1D6
:100D900020430E4E083E3060491C1029FFF426AF58
:100DA000F8BD00004438024008380140000002400D
:100DB0000004024000080240000C02400010024003
:100DC0000014024000180240001C0240083C014090
:100DD0000AB1816101E00B0483617047014800683A
:100DE000704700002400002070B504460CB90120B3
:100DF00070BD94F83D0028B9002084F83C002046DE
:100E000000F00EFB242084F83D002068006820F0EC
:100E10000100216808602068006840F400402168F3
:100E200008602068006820F400402168086000F035
:100E3000D9FC05465C496068884206D85B48854213
:100E400001D2012007E0002005E05948854201D287
:100E5000012000E00020012800D1C9E75548B5FB7A
:100E6000F0F62068406820F03F0030432168486079
:100E70004D496068884201D8701C07E04FF49670B5
:100E800070434FF47A71B0FBF1F0401C2168096A9D
:100E900021F03F01084321680862434960688842A5
:100EA00014D8681E61684900B0FBF1F0401CC0F323
:100EB0000B00042801D204203DE0681E616849004F
:100EC000B0FBF1F0401CC0F30B0034E0A06838B96F
:100ED000681E616801EB4101B0FBF1F0401C0AE0C3
:100EE000681E616801EBC10202EB0111B0FBF1F079
:100EF000401C40F48040C0F30B0008B901201AE008
:100F0000A06848B9681E616801EB4101B0FBF1F0CF
:100F1000401CC0F30B000CE0681E616801EBC102CD
:100F200002EB0111B0FBF1F0401CC0F30B0040F4E8
:100F3000804040F400402168C9694CF6FF7291433B
:100F400008432168C861D4E907010843216809689A
:100F500021F0C001084321680860D4E90310084368
:100F60002168896848F2FF3291430843216888600C
:100F7000D4E9050108432168C96821F0FF0108434D
:100F80002168C8602068006840F00100216808609E
:100F900000202064202084F83D000020206384F895
:100FA0003E0000BF24E70000A086010080841E00F0
:100FB00000093D0040420F002DE9F84304468946F0
:100FC00017469846089EFFF709FF054694F83D002E
:100FD00020287DD119230122B2492046009501F035
:100FE000AFFB10B10220BDE8F88300BF94F83C00CD
:100FF000012801D10220F6E7012084F83C0000BF5F
:101000002068006800F0010028B92068006840F0FE
:101010000100216808602068006820F400602168F1
:101020000860222084F83D00102084F83E00002053
:1010300020646762A4F82A80608D20859A48E06267
:101040002B4632464946204601F050FA08B10120AD
:10105000C9E7208D88B900BF002000902068406952
:10106000009020688069009000BF00BF2068006881
:1010700040F400702168086047E0208D012817D1F6
:101080002068006820F480602168086000BF0020AC
:10109000009020684069009020688069009000BF3F
:1010A00000BF2068006840F40070216808602CE0F0
:1010B000208D022818D12068006820F48060216803
:1010C00008602068006840F400602168086000E063
:1010D000E6E000BF00200090206840690090206892
:1010E0008069009000BF10E02068006840F48060D4
:1010F0002168086000BF00200090206840690090CF
:1011000020688069009000BF00BFBAE0208D0328EE
:101110007ED8208D012815D12A463146204601F07F
:10112000B4FB08B101205EE720680069616A0870BD
:10113000606A401C6062208D401E2085608D401ECC
:1011400060859EE0208D02282AD13346002257492F
:101150002046009501F0F4FA08B1012043E7206829
:10116000006840F400702168086020680069616AC6
:101170000870606A401C6062208D401E2085608D72
:10118000401E608520680069616A0870606A401CC2
:101190006062208D401E2085608D401E608570E05D
:1011A0003346002241492046009501F0C9FA08B1B2
:1011B000012018E72068006820F48060216808603A
:1011C00020680069616A0870606A401C6062208D56
:1011D000401E2085608D401E6085334600223349C5
:1011E0002046009501F0ACFA08B10120FBE620682A
:1011F000006840F400702168086020680069616A36
:101200000870606A401C6062208D401E208500E0EE
:1012100010E0608D401E608520680069616A08707A
:10122000606A401C6062208D401E2085608D401EDB
:10123000608526E02A463146204601F026FB08B1AB
:101240000120D0E620680069616A0870606A401C6D
:101250006062208D401E2085608D401E6085206864
:101260004069C0F3800060B120680069616A08705D
:10127000606A401C6062208D401E2085608D401E8B
:101280006085208D00287FF441AF202084F83D0048
:10129000002084F83E0000BF84F83C0000BFA2E6B6
:1012A0000220A0E6020010000000FFFF0400010081
:1012B0002DE9F8430446894616461F46DDF820808E
:1012C000FFF78CFD054694F83D0020287ED11923B8
:1012D000012251492046009501F032FA10B1022056
:1012E000BDE8F88300BF94F83C00012801D102203A
:1012F000F6E7012084F83C0000BF2068006800F099
:10130000010028B92068006840F0010021680860E9
:101310002068006820F4006021680860212084F8BB
:101320003D00102084F83E0000202064666267853E
:10133000608D20853948E0622B464246494620466A
:1013400001F070F908B10120CAE700BF0020009049
:1013500020684069009020688069009000BF00BF4D
:1013600044E02A464146204601F0CFFA50B1206CB5
:10137000042805D12068006840F4007021680860E6
:101380000120ADE7606A007821680861606A401C4E
:101390006062608D401E6085208D401E2085206823
:1013A0004069C0F3800070B1208D60B1606A007840
:1013B00021680861606A401C6062608D401E608523
:1013C000208D401E20852A46414600E022E020462E
:1013D00001F088F950B1206C042805D1206800681C
:1013E00040F4007021680860012079E7208D002812
:1013F000B7D12068006840F40070216808602020A0
:1014000084F83D00002084F83E0000BF84F83C00D2
:1014100000BF65E7022063E7020010000000FFFF45
:1014200010B586B00446142101A8FEF703FF1B493E
:10143000206888422FD100BF002000901848006823
:1014400040F00200164908600846006800F00200FB
:10145000009000BF00BFC020019012200290012028
:101460000390032004900420059001A90D48FFF784
:10147000B5FB00BF0020009009481030006840F420
:1014800000100749103108600846006800F4001099
:10149000009000BF00BF06B010BD00000054004027
:1014A00030380240000402400348006803490978CC
:1014B0000844014908607047240000202C000020E7
:1014C00010B50D48006840F400700B4908600846EC
:1014D000006840F4806008600846006840F480704E
:1014E0000860032000F0A2F8002000F007F800F0E8
:1014F0002BF8002010BD0000003C024070B50446EF
:101500000E4800784FF47A71B1FBF0F00C4909688D
:10151000B1FBF0F5284600F01BFC08B1012070BDBE
:10152000102C07D200222146501E00F041F8054839
:10153000046001E00120F2E70020F0E72C00002029
:10154000300000202800002008B500BF00200090D7
:101550000E48006840F480400C4908600846006866
:1015600000F48040009000BF00BF00BF002000904A
:10157000081F006840F08050091F08600846006896
:1015800000F08050009000BF00BF08BD443802400A
:1015900001460846002809DB00F01F0301229A409B
:1015A00043099B0003F1E023C3F8002100BF70470B
:1015B0002DE9F05F80460D461646002701F070FECB
:1015C000074639462A46334601F00700C0F1070AAC
:1015D000BAF1040F02D94FF0040A01E0C0F1070A82
:1015E000D14600F1040ABAF1070F02D24FF0000A07
:1015F00001E0A0F1030AD4464FF0010A0AFA09FA01
:10160000AAF1010A0AEA020A0AFA0CFA4FF0010BDF
:101610000BFA0CFBABF1010B0BEA030B4AEA0B04D0
:101620002146404601F044FEBDE8F09F00BF00F0B7
:101630000702064B19684FF6FF031940044B0B4392
:1016400043EA0221014B196000BF70470CED00E036
:101650000000FA0570B504460D460CB9012070BDB6
:101660005848006800F00700A84209D255490D709B
:101670000846006800F00700A84201D00120EEE70C
:10168000207800F0020002281DD1207800F004002C
:10169000042805D14C48006840F4E0504A490860ED
:1016A000207800F00800082805D14748006840F479
:1016B0006040454908604448006820F0F000A16897
:1016C000084341490860207800F00100A8B3606831
:1016D000012807D13C4808380068C0F34040B8B939
:1016E0000120BCE76068022802D06068032807D1A7
:1016F000354808380068C0F3406048B90120AEE7BB
:10170000314808380068C0F3400008B90120A6E756
:101710002D48006820F00300616808432A490860EA
:10172000FFF75CFB064609E0FFF758FB801B41F220
:101730008831884202D9032091E707E022480068F7
:1017400000F00C006168B0EB810FEDD11D4800681E
:1017500000F00700A84209D91A490D700846006830
:1017600000F00700A84201D0012078E7207800F0BF
:101770000400042807D11448006820F4E050E16810
:10178000084311490860207800F00800082808D1B3
:101790000D48006820F46040216940EAC1000A4910
:1017A000086000F02FF808490968C1F30311074ADF
:1017B000515CC8400649086006480068FFF79EFE75
:1017C00000204CE7003C024008380240D43A0008B0
:1017D0003000002028000020014800687047000009
:1017E0003000002000B5FFF7F7FF04490968C1F396
:1017F0008221034A515CC84000BD00000838024005
:10180000E43A00082DE9F047002400250026A1460F
:101810002548006800F00C0020B1042805D00828F5
:101820003AD105E0DFF8849039E0DFF8849036E0C3
:101830001D48001F006800F03F041B48001F00689F
:1018400000F4800078B11A481749091F0968C1F3EC
:101850008811A0FB01700146224600233846FEF79E
:10186000B1FC05460EE011480F49091F0968C1F394
:101870008811A0FB01700146224600233846FEF77E
:10188000A1FC05460848001F0068C0F30140401C49
:101890004600B5FBF6F902E0DFF8109000BF00BF8C
:1018A0004846BDE8F0870000083802400024F400F4
:1018B00000127A00F8B504460CB90120F8BD207872
:1018C00000F00100002874D0F948006800F00C0016
:1018D00004280DD0F648006800F00C00082813D149
:1018E000F348001F006800F48000B0F5800F0BD1B2
:1018F000EF4808380068C0F34040002859D06068BD
:10190000002856D10120D9E700BF6068B0F5803FBC
:1019100008D1E7480838006840F48030E4490839C5
:1019200008601EE06068B0F5A02F0DD1E0480838CF
:10193000006840F48020DE490839086008460068E5
:1019400040F4803008600CE0D9480838006820F482
:101950008030D749083908600846006820F48020A4
:10196000086000BF606890B1FFF738FA054606E0EE
:10197000FFF734FA401B642801D903209EE7CC48C6
:1019800008380068C0F340400028F1D011E0FFF7AC
:1019900025FA054606E0FFF721FA401B642801D925
:1019A00003208BE7C24808380068C0F34040002895
:1019B000F1D1207800F0020002285FD1BC48006815
:1019C00000F00C0058B1BA48006800F00C0008287C
:1019D0001CD1B748001F006800F48000B0B9B448BB
:1019E00008380068C0F3400020B1E068012801D049
:1019F000012063E7AE480838006820F0F80021694C
:101A000040EAC100AA490839086037E0E06800B33D
:101A10000120A8490860FFF7E1F9054606E0FFF755
:101A2000DDF9401B022801D9032047E7A048083808
:101A30000068C0F340000028F1D09D4808380068D5
:101A400020F0F800216940EAC1009949083908608E
:101A500014E0002097490860FFF7C0F9054606E04A
:101A6000FFF7BCF9401B022801D9032026E7904864
:101A700008380068C0F340000028F1D1207800F059
:101A8000080008282CD16069A8B101208A490860A3
:101A9000FFF7A4F9054606E0FFF7A0F9401B02286E
:101AA00001D903200AE782486C300068C0F3400087
:101AB0000028F1D014E000207F490860FFF78EF97C
:101AC000054606E0FFF78AF9401B022801D90320EA
:101AD000F4E677486C300068C0F340000028F1D18C
:101AE000207800F00400042870D1002770483830B6
:101AF000006800F0805090B900BF002000906C4852
:101B00003830006840F08050694938310860084634
:101B1000006800F08050009000BF00BF01276748B8
:101B2000006800F48070B0B96448006840F48070C8
:101B300062490860FFF752F9054606E0FFF74EF9E3
:101B4000401B022801D90320B8E65C48006800F475
:101B500080700028F2D000BFA068012808D1544846
:101B60006830006840F001005149683108601DE0AC
:101B7000A06805280DD14E486830006840F0040088
:101B80004B49683108600846006840F00100086071
:101B90000CE047486830006820F001004449683193
:101BA00008600846006820F00400086000BFA068D4
:101BB000A8B1FFF713F9054609E0FFF70FF9401B3D
:101BC00041F28831884202D9032077E626E038487E
:101BD00068300068C0F340000028EED013E0FFF743
:101BE000FDF8054608E0FFF7F9F8401B41F288319F
:101BF000884201D9032061E62D4868300068C0F3AF
:101C000040000028EFD1012F07D129483830006863
:101C100020F0805026493831086000BFA0690028B4
:101C200045D02348006800F00C0008285DD0A0696A
:101C3000022845D100201F490866FFF7CFF8054666
:101C400006E0FFF7CBF8401B022801D9032035E658
:101C5000174808380068C0F340600028F1D1D4E983
:101C600007010843616A40EA81110122A06AC2EBC0
:101C7000500041EA00412C20005D41EA00600C491F
:101C8000091F086001200B490866FFF7A7F8054601
:101C900006E0FFF7A3F8401B022801D903200DE658
:101CA000034808380068C0F340600028F1D049E0DC
:101CB0000838024000004742800E47420070004052
:101CC000002021490866FFF789F8054606E0FFF77E
:101CD00085F8401B022801D90320EFE51B48006866
:101CE000C0F340600028F2D12CE0A069012800D1A7
:101CF000E4E51648001D0668A069012820D006F416
:101D00008001E06981421BD106F03F01206A8142D7
:101D100016D147F6C0703040616AB0EB811F0FD119
:101D200006F440310122A06AC2EB5000B1EB004F33
:101D300006D106F070612C20005DB1EB006F01D080
:101D40000120BBE50020B9E5000047420038024011
:101D500070B504462546681EB0F1807F01D301208E
:101D60000FE0681E4FF0E02148610F214FF0FF3077
:101D700001F09EFA00204FF0E02188610720086101
:101D8000002070BD7047704730B502460B4600BF5B
:101D900092F83C00012801D1022030BD012082F8D8
:101DA0003C0000BF022082F83D00106844681068C3
:101DB000816824F070041868044310684460184D6A
:101DC0001068A8421BD01068B0F1804F17D0154D95
:101DD0001068A84213D0144D1068A8420FD0134DBC
:101DE0001068A8420BD0124D1068A84207D0114DC0
:101DF0001068A84203D0104D1068A84205D121F008
:101E000080015868014310688160012082F83D001C
:101E100000BF002082F83C0000BF00BFBDE700000B
:101E2000000001400004004000080040000C004099
:101E300000040140004001400018004010B5044675
:101E40000CB9012010BD94F83D0028B9002084F899
:101E50003C00204600F026F8022084F83D00211DB9
:101E6000206800F07FFF012084F8460000BF84F85E
:101E70003E0001213F2001554020015541200155E0
:101E800000BF00BF012084F84200432001554420D8
:101E900001554520015500BF012084F83D00002078
:101EA000D0E7000038B504460E492068884217D1B3
:101EB00000BF002000900C48006840F002000A4972
:101EC00008600846006800F00200009000BF00BFF4
:101ED000002211461D20FFF76BFB1D20FFF758FB6A
:101EE00038BD00000004004040380240014691F82F
:101EF0003D00012801D001207047022081F83D00FB
:101F00000868C06840F001000B68D8601A4B086888
:101F100098421BD00868B0F1804F17D0174B086863
:101F2000984213D0164B086898420FD0154B08689A
:101F300098420BD0144B0868984207D0134B08689E
:101F4000984203D0124B086898420CD10868806808
:101F500000F00702062A0CD00868006840F0010073
:101F60000B68186005E00868006840F001000B6825
:101F700018600020C0E7000000000140000400409D
:101F800000080040000C00400004014000400140F7
:101F9000001800402DE9F04104460D46002700BF1F
:101FA00094F83C00012802D10220BDE8F081012014
:101FB00084F83C0000BF022084F83D002068866859
:101FC00026F0770626F47F46206886602868502829
:101FD00033D00CDC202850D004DC00284BD0102853
:101FE00051D149E0302849D040284CD139E060280F
:101FF0002DD0702807D0B0F5805F03D0B0F5005F1A
:1020000041D10DE041E0D5E902136A68206800F093
:1020100015FF2068866846F077062068866034E001
:10202000D5E902136A68206800F008FF206880681C
:1020300040F480402168886027E0EA686968206889
:1020400000F010FF5021206800F003FF1DE0EA6857
:102050006968206800F019FF6021206800F0F9FE2F
:1020600013E0EA686968206800F0FCFE40212068FF
:1020700000F0EFFE09E000BF00BF00BF2968206844
:1020800000F0E7FE01E0012700BF00BF012084F857
:102090003D0000BF002084F83C0000BF384684E7C4
:1020A000704710B5044620680069C0F34000D8B1FD
:1020B0002068C068C0F34000B0B16FF00200216832
:1020C0000861012020772068806900F0030018B1C2
:1020D0002046FFF7E5FF05E0204600F0ADF820467A
:1020E00000F0ABF80020207720680069C0F3800082
:1020F000D8B12068C068C0F38000B0B16FF00400B0
:1021000021680861022020772068806900F440700F
:1021100018B12046FFF7C4FF05E0204600F08CF818
:10212000204600F08AF80020207720680069C0F37C
:10213000C000D8B12068C068C0F3C000B0B16FF073
:10214000080021680861042020772068C06900F039
:10215000030018B12046FFF7A3FF05E0204600F07A
:102160006BF8204600F069F80020207720680069AD
:10217000C0F30010D8B12068C068C0F30010B0B13F
:102180006FF0100021680861082020772068C0697E
:1021900000F4407018B12046FFF782FF05E02046AA
:1021A00000F04AF8204600F048F800202077206828
:1021B000006900F0010058B12068C06800F001001B
:1021C00030B16FF0010021680861204600F036F858
:1021D00020680069C0F3C01058B12068C068C0F31F
:1021E000C01030B16FF08000216808612046FFF711
:1021F000C9FD20680069C0F3801058B12068C0682C
:10220000C0F3801030B16FF04000216808612046B3
:1022100000F015F820680069C0F3401058B120683C
:10222000C068C0F3401030B16FF020002168086131
:102230002046FFF7A8FD10BD7047704770477047F4
:1022400000BFFEE72DE9FF4F83B00F461E46DDF8C5
:1022500040804FEA4860000E02900024DDF808B08C
:10226000584601F001FC0546A2462C463220790072
:10227000012305AA00902E48FFF71AF82D4908708F
:102280000846007830B1284601F0D0FA012007B0A6
:10229000BDE8F08F32204FEA48030090012000EBA8
:1022A000470122462248FEF787FE22490870084669
:1022B000007820B1284601F0B9FA0120E7E71120A3
:1022C0008DF8040020788DF805000722022101A86E
:1022D000FEF76EFA8246641C2078504504D02846EA
:1022E00001F0A4FA0220D2E714F8010C30704FF08C
:1022F000010915E0641C072201212046FEF758FA67
:102300008246641C761C2078504504D0284601F093
:102310008DFA0220BBE714F8010C307009F10109B5
:10232000C145E7DB284601F081FA0020AFE7000055
:102330002C010020200000202DE9FF4707460C4615
:1023400015461E4603954FF00008C146C24632208E
:102350006100012303AA00903846FEF7A9FF8246D8
:1023600032200090012000EB4401022302AA3846EB
:10237000FEF722FE8146B9F1000F02D1BAF1000F3B
:1023800003D0012004B0BDE8F087012000EB440039
:10239000C0B28DF804009DF808008DF805000722F2
:1023A000022101A8FEF704FA80469DF80900404585
:1023B00001D00220E6E79DF8080030700020E1E738
:1023C0002DE9FE4F0F4692461E46DDF830804FEA5B
:1023D0004800801CC0B2019001980290029801F060
:1023E00043FB05462C467806000E2070641C84F8DA
:1023F00000A0641C30782070641C0722032128464A
:10240000FEF7D6F920704FF0010B0CE0641C761C2F
:1024100030782070072201212046FEF7C9F960704C
:10242000641C0BF1010BC345F0DB322000904FEA36
:102430004800431C79006A1C0848FEF739FF8146B2
:10244000B9F1000F05D0284601F0F0F90120BDE8F0
:10245000FE8F284601F0EAF90020F8E72C01002061
:102460002DE9FC4107460C4615461E466006000E47
:102470008DF804008DF805508DF8066007220321C1
:1024800001A8FEF795F98DF80700322061000323BB
:102490000DF1050200903846FEF70AFF8046B8F1BC
:1024A000000F02D00120BDE8FC810020FBE70146BF
:1024B00008684069C0F38020B0B16FF480600A689A
:1024C000506100200863202081F83D00002081F841
:1024D0003E00086C40F00400086400BF002081F852
:1024E0003C0000BF012070470020FCE72DE9F843C5
:1024F00004460D4690461E46E76A2068006840F490
:10250000806021680860082F04D0012F02D017F5E1
:10251000803F06D12068006840F480702168086020
:1025200008E0206B112805D12068006840F4807015
:1025300021680860434600224FF0011120460096B2
:1025400000F0FEF860B12068006800F48070B0F51B
:10255000807F02D14FF4007020640320BDE8F8832F
:102560002069B0F5804F05D1E8B240F00100216844
:10257000086149E005F44070F02141EAE01021686B
:102580000861334642462649204600F01CF908B14E
:102590000120E3E7E8B2216808613346424620495A
:1025A000891F204600F00FF908B10120D6E700BFCF
:1025B00000200090206840690090206880690090A9
:1025C00000BF00BF2068006840F480702168086088
:1025D000434600224FF001112046009600F0B0F86B
:1025E00058B12068006800F48070B0F5807F02D197
:1025F0004FF4007020640320B0E705F44070F1212F
:1026000041EAE01021680861334642460449891FC7
:10261000204600F0D8F808B101209FE700209DE790
:10262000080001002DE9F84304460D461746984678
:10263000E66A082E04D0012E02D016F5803F06D19E
:102640002068006840F480702168086008E0206B12
:10265000122805D12068006840F480702168086065
:102660003B4600224FF001112046CDF8008000F0DB
:1026700067F860B12068006800F48070B0F5807F72
:1026800002D14FF4007020640320BDE8F883206974
:10269000B0F5804F04D105F0FE002168086112E01A
:1026A00005F44070F02141EAE010216808614346DA
:1026B0003A460B49204600F086F808B10120E4E7CD
:1026C000E8B22168086143463A460549891F204619
:1026D00000F079F808B10120D7E70020D5E7000025
:1026E0000800010070B504460D46164620E020465D
:1026F000FFF7DDFE08B1012070BD681CC0B1FEF718
:102700006DFB801BA84200D895B9002020632020D3
:1027100084F83D00002084F83E00206C40F020004A
:10272000206400BF002084F83C0000BF0120E3E7E4
:1027300020684069C0F380000028D8D00020DBE783
:102740002DE9F04104460D4617461E46DDF8188077
:102750001CE0701CD0B1FEF741FBA0EB0800B042BA
:1027600000D89EB900202063202084F83D0000207E
:1027700084F83E00206C40F02000206400BF002060
:1027800084F83C0000BF0120BDE8F081C5F307409C
:1027900001280AD120684069A9B20840A9B288423C
:1027A00001D101200BE0002009E020688069A9B276
:1027B0000840A9B2884201D1012000E00020B842BF
:1027C000C7D00020E0E72DE9F04104460D4616464B
:1027D0001F463DE020684069C0F38020E8B12068D2
:1027E000006840F40070216808606FF48060216820
:1027F000486100202063202084F83D00002084F8F8
:102800003E00206C40F00400206400BF002084F8EB
:102810003C0000BF0120BDE8F081701CC0B1FEF794
:10282000DDFAC01BB04200D896B9002020632020FA
:1028300084F83D00002084F83E00206C40F0200029
:10284000206400BF002084F83C0000BF0120E2E7C4
:10285000C5F3074001280AD120684069A9B20840A1
:10286000A9B2884201D101200BE0002009E02068D4
:102870008069A9B20840A9B2884201D1012000E0D4
:1028800000200028A6D00020C5E770B504460D46FC
:10289000164632E020684069C0F30010A0B16FF026
:1028A00010002168486100202063202084F83D004A
:1028B000002084F83E00206C206400BF002084F8D3
:1028C0003C0000BF012070BDFEF788FA801BA842C3
:1028D00000D895B900202063202084F83D00002016
:1028E00084F83E00206C40F02000206400BF0020EF
:1028F00084F83C0000BF0120E5E720684069C0F390
:1029000080100028C6D00020DDE770B504460D46D3
:10291000164620E02046FFF7CAFD08B1012070BD31
:10292000681CC0B1FEF75AFA801BA84200D895B9BE
:1029300000202063202084F83D00002084F83E0021
:10294000206C40F02000206400BF002084F83C0090
:1029500000BF0120E3E720684069C0F3C0100028F1
:10296000D8D00020DBE7000010B52DED048B4B48DC
:10297000807920F01800494988710846807920F054
:102980000700801C88710846C07920F07000503024
:10299000C8710846C07920F00F00401CC871084675
:1029A000007A20F03000203008720846007A20F0CB
:1029B000C0000872FEF7EEF804461CB12046BDECDC
:1029C000048B10BD354991F8341001F00C0140F230
:1029D0006D1202EB4101314A92F8362001EB5210A0
:1029E000FDF7A2FC41EC190B9FED2D0B53EC102BC6
:1029F000FDF72BFC41EC180BFDF7B4FC2A490860ED
:102A0000264890F8340000F00C0040F26D1101EB04
:102A10004000224991F8361000EB5110234908601C
:102A20001E4890F8350041F2CC01081A00EE100A59
:102A3000F8EE400A1C4890ED001A80EE810AF6EE8E
:102A4000000A30EE200ABCEEC00A10EE100A00F6B2
:102A5000F870C0F3071011494872084690F8350025
:102A600040F6C411081A00EE100AB8EE400A0E48EB
:102A7000D0ED000A80EE201AB6EE000A31EE000A10
:102A8000BCEEC00A10EE100AC0F3071003498872AA
:102A9000FDF7E4FF0446204691E70000880000208F
:102AA0000000000000408F400C00002010000020BB
:102AB00008B500BF002000900E48006840F080007C
:102AC0000C4908600846006800F08000009000BFD4
:102AD00000BF00BF002000900846006840F00200E0
:102AE00008600846006800F00200009000BF00BFC8
:102AF00008BD00003038024010B50B480B49086093
:102B00000B484860002109488160C1604FF4804152
:102B10000161002141618161C1610162FEF764F9D7
:102B200008B1FEF735F810BD005400402C0100201C
:102B3000A086010000B587B00020039004900590A6
:102B400006900190029015481549086042F20F70F6
:102B5000486000211248816042F2CF01C16000212B
:102B600001618161FFF76AF908B1FEF711F84FF4CE
:102B70008050039003A90A48FFF70CFA08B1FEF74A
:102B800007F800200190029001A90548FFF7FCF822
:102B900008B1FDF7FDFF07B000BD000000040040D4
:102BA00040000020F0B504460D46002020460021DC
:102BB000118000BF0BE006881788BE4202DD068840
:102BC000168019700688761C06804E1CF1B2A94248
:102BD000F1DDF0BD00BFFEE7F0B504460D46002074
:102BE00020464FF6FF71118000210BE00688178800
:102BF000BE4202DA0688168019700688761C0680A6
:102C00004E1CF1B2A942F1DDF0BD000070B50546E1
:102C1000052D1DD2DFE805F003080D12170011483D
:102C2000007900F0FC0413E00E48007900F0FE0487
:102C30000EE00C48007940F0010409E009480079F1
:102C400000F0FD0404E00748007940F0030400BFF1
:102C500000BF2346052208210348FFF701FC064672
:102C6000304670BD880000202C010020704770475E
:102C7000704710B5FEF718FC10BD000000B593B00A
:102C8000302107A8FDF7D6FA142102A8FDF7D2FAE1
:102C900000BF002001902448006840F08050224985
:102CA00008600846006800F08050019000BF00BF37
:102CB00000BF002001901D48006840F480401B497F
:102CC00008600846006800F48040019000BF00BF23
:102CD000012007900004089002200D9041050E91FC
:102CE00004210F91A8211091022111910421129128
:102CF00007A8FEF7DFFD08B1FDF74AFF0F2002909D
:102D000002200390002004904FF4A05005904FF44F
:102D100080500690052102A8FEF79CFC08B1FDF743
:102D200037FF13B000BD0000403802400070004083
:102D30000548006840F47000034908604FF00060E7
:102D4000014980390860704788ED00E010B50348FC
:102D5000FFF7A7F901200249087010BD40000020CC
:102D60001A00002010B50268294B98420ED0B0F12D
:102D7000804F0BD0274B984208D0274B984205D064
:102D8000264B984202D0264B984203D122F0700283
:102D90004B681A431E4B984220D0B0F1804F1DD093
:102DA0001C4B98421AD01C4B984217D01B4B984290
:102DB00014D01B4B984211D01A4B98420ED01A4B8C
:102DC00098420BD0194B984208D0194B984205D025
:102DD000184B984202D0184B984203D122F440720B
:102DE000CB681A4322F080034C6943EA0402026074
:102DF0008B68C3620B688362054B984202D0084B14
:102E0000984201D10B6903630123436110BD0000A7
:102E1000000001400004004000080040000C004099
:102E200000040140004001400044014000480140CE
:102E300000180040001C00400020004030B50C4647
:102E4000816821F47F4142EA0325254329438160BB
:102E500030BD0A46816821F0700142F00703194332
:102E60008160704730B50B461446026A056A25F04A
:102E700001050562816921F0F00141EA041122F0A7
:102E80000A021A438161026230BD30B50B46144616
:102E9000056A25F0100505628169026A21F4704116
:102EA00041EA043122F0A00242EA03128161026287
:102EB00030BD000070B5044664B92E4B1A1F0321C3
:102EC0002D48FFF76FFE2B4B5B1CDA1E03212A48AF
:102ED000FFF782FE022C0ED1264B1A1F0321264833
:102EE0000C30FFF75FFE234B5B1CDA1E03212248E8
:102EF0000C30FFF771FE1F480A38008900EE100AF7
:102F0000B8EE400A1D48D0ED010AB4EEE00AF1EE39
:102F100010FA0BD2012211031948FDF759FF0CB921
:102F2000052070BD022C01D10720FAE711480A38AC
:102F3000C08800EE100AB8EE400A1048D0ED000A32
:102F4000B4EEE00AF1EE10FA0EDD012251030C4856
:102F5000FDF73EFF0020FFF759FE0CB90620E0E721
:102F6000022C01D10820DCE72046FDF743FC054692
:102F70002846D6E7CA00002014010020D000002017
:102F8000000C024038B50220184B2A22082100907C
:102F90001748FFF757F9044614482A3890F82B00D1
:102FA00012492A3991F82A1000EB012000EE100A8C
:102FB000F8EEC00A0D482A3890F83500C0EB001032
:102FC00000EE100AB8EEC00A0A4890ED001AF1EEC1
:102FD000001A21EE211A01EE200ABCEEC00A10EE02
:102FE000100A0549C883204638BD0000B200002001
:102FF0002C0100200C000020F4000020F8B5002473
:103000000025002700261E201B4B0C2208210090C3
:103010001A48FFF717F91A4908700846007810B1E6
:1030200008460078F8BD144D0020164908600024B9
:103030001DE06878297800EB012713480068784381
:103040004FF47A71B0FBF1F60B480C3890F835006C
:1030500006440E4921F81460084630F81400094966
:103060000968084407490860AD1C601CC4B20F2CF5
:10307000DFDB0020D6E70000940000202C010020B8
:10308000000000201C00002010000020F4000020A0
:1030900038B5002502200F4B3222082100900E483F
:1030A000FFF7D0F804460B48323890F8330009494E
:1030B000323991F8321000EB012005B20748807FC9
:1030C00042F2F80191FBF0F068430549486320465D
:1030D00038BD0000BA0000202C010020D0000020E4
:1030E000F40000202DE9F84F06460C464FF000088A
:1030F0000025A946AA46B3466006000E1C4B2C22AA
:10310000082100901B48FFF79DF8074617B1384685
:10311000BDE8F88F164D4FF0000824E06878297854
:1031200000EB01201FFA80F94FF4BF7009FB00F09B
:103130004FF47A7190FBF1FAAAF5966000EE100A4E
:10314000F8EE400A9FED0C1A80EE810AF3EE090AB0
:1031500030EEC00A8BED000A0BF1040BAD1C08F138
:10316000010000F0FF08A045D8DB3846D0E700009A
:10317000B40000202C010020666686402DE9F04F47
:103180002DED0A8B83B081460D464FF000080026D6
:10319000B24600279FED380AB0EE408A4C466806DA
:1031A000000E364B2C22082100903548FFF74AF8D4
:1031B0008346BBF1000F05D0584603B0BDEC0A8B27
:1031C000BDE8F08F2D4E4FF0000850E07078317858
:1031D00000EB01201FFA80FA4FF4BF700AFB00F0E9
:1031E0004FF47A7190FBF1F742F21070784340F699
:1031F000E441C91BB0FBF1F080B202900298FDF7E8
:10320000A4F89FED200B53EC102BFDF71EF841ECBA
:103210001B0BB0EE4B0AF0EE6B0A00F05DF8B0EE5F
:1032200040AAF0EE60AA9FED190B53EC102B51EC65
:103230001A0BFDF70AF8FDF795F808EE100A9FED56
:10324000150A38EE000AF7EE000A80EE801A84EDC7
:10325000001A94ED000ADFED100A30EE600A84EDEA
:10326000000A241DB61C08F1010000F0FF08A84563
:10327000ACDB5846A1E7000000000000B4000020CD
:103280002C010020000000000088C3400000000066
:103290000012AF4062EB5B3B0080884300BFFEE75B
:1032A00002480068C0F30220704700000CED00E007
:1032B00010B5002804DB0A07130E054A135406E074
:1032C0000A07140E034A00F00F031B1FD45410BD4D
:1032D00000E400E018ED00E070B5D94B00242DEDBE
:1032E000020B2DED108BDDE91010984205DA20F06D
:1032F00000429A4201D809D141B19DED100BBDECBD
:10330000108B02B0BDE8704000F05EBAB0F5801FCF
:1033100026DA11430BD0002813DA012000F080FADE
:10332000BDEC108B02B0BDE8704000F059BA02202D
:1033300000F076FA00F030FA51EC100B81F0004109
:103340009EE06FF035049FEDC00B53EC102B9DED0C
:10335000100B51EC100BFDF77BF9CDE9100108467D
:1033600004EB2051C0F31304B948A1F2FF3120440B
:1033700000F4801080F07F6282F04052224301EB23
:1033800020559FEDB50B119253EC102B9DED100BBA
:1033900051EC100BFDF756F941EC180BA01CC0F3D3
:1033A00013009FEDAFDB9FEDB0EBB14E7E440328E1
:1033B0006CD296ED000B51EC180B53EC102BFDF773
:1033C000B9F91DD1002D01BF96ED000BBDEC108B9E
:1033D00002B070BD2846FCF7A7FF41EC180B53EC78
:1033E0001D2BFDF735F941EC190B53EC1E2B51EC5D
:1033F000180BFDF72DF953EC192BFDF782F83FE080
:103400009FED9D0B51EC180B53EC102BFDF720F9A1
:103410009FED9B1B53EC112BFDF717F941EC190B9A
:1034200053EC182B51EC180BFDF712F953EC192B38
:10343000FDF70EF941EC190B002D04BF53EC192BCD
:1034400051EC180B1AD02846FCF76EFF41EC1A0B12
:1034500053EC1D2BFDF7FCF853EC192BFDF7F5F899
:1034600053EC182BFDF7EEF841EC180B53EC1E2B28
:1034700051EC1A0BFDF7ECF853EC182BFDF7E2F8C2
:10348000BDEC108B02B041EC100B70BD9FED7E0BBC
:1034900051EC180B53EC102BFDF733F841EC100BEB
:1034A00051EC180B53EC102BFCF7CFFE41EC190B31
:1034B0002846FCF739FF41EC1B0B53EC192B51EC60
:1034C000190BFDF7C5F841EC1A0B714853EC1A2B98
:1034D000261851EC1A0BFDF7BBF841EC1F0B6D4899
:1034E000C4F1510404F5D724B0EE4F0AF0EE6F0A90
:1034F0000321784400F0D2F853EC1F2B51EC100B51
:10350000FDF7A6F841EC1C0B6348B0EE4F0AF0EE55
:103510006F0A0421784400F0C1F853EC1A2B51ECE7
:10352000100BFDF795F8344353EC1C2BFCF7E9FF27
:1035300041EC1C0B002C4CDD9FED510B51EC180B9A
:1035400053EC102BFDF784F853EC182BFDF780F8A3
:1035500041EC1A0B55B353EC1D2B51EC1B0BFDF733
:1035600077F841EC1D0B53EC1C2B51EC1A0BFCF7BC
:10357000C8FF53EC192BFDF76BF853EC1D2BFCF730
:10358000C0FF53EC1A2BFDF760F853EC182BFDF736
:1035900059F841EC180B53EC1E2B51EC1B0BFDF7AB
:1035A00057F853EC182BFDF74DF869E753EC1C2B3B
:1035B00051EC1A0BFCF7A5FF53EC192BFDF748F85B
:1035C00053EC1A2BFDF741F853EC182BFDF73DF89F
:1035D00056E735B353EC1D2B51EC1B0BFDF738F8B8
:1035E00041EC1A0B53EC1C2B51EC180BFDF72AF88D
:1035F00053EC192BFDF72CF853EC1A2BFDF722F89E
:1036000053EC182BFDF71EF841EC180B53EC1E2B56
:1036100051EC1B0BFDF71CF853EC182BFDF712F8BF
:103620002EE753EC1C2B51EC180BFDF70BF853EC69
:10363000192BFDF70DF853EC182BFDF706F81FE7D3
:103640000000F07F00000000000000000000504378
:10365000645F090000000000000000000000F03F6F
:10366000763C7935EF39EA3D0000E0FE422EE63F38
:103670007807000000000000555555555555D53FB9
:10368000000000000000E03F0000000000000040DB
:1036900086EBF9FFFA050000F005000070B504465E
:1036A0002DED028B4D1E00EBC500B0EE408AF0EE12
:1036B000608A90ED000B35F0060017D053EC182B04
:1036C00051EC100BFCF7C4FF41EC100B6D1E04EB2A
:1036D000C50090ED001B51EC100B53EC112BFCF7C7
:1036E00010FF41EC100B35F00600E7D1022D36D06B
:1036F000042D1CD0062D1CBFBDEC028B70BD53ECFD
:10370000182B51EC100BFCF7A3FF94ED0A1B53ECA4
:10371000112BFCF7F6FE53EC182BFCF799FF94EDF8
:10372000081B53EC112BFCF7ECFE41EC100B53EC97
:10373000182B51EC100BFCF78BFF94ED061B53EC90
:10374000112BFCF7DEFE53EC182BFCF781FF94EDF8
:10375000040B53EC102BFCF7D4FE41EC100B53EC94
:10376000182B51EC100BFCF773FF94ED021B53EC7C
:10377000112BFCF7C6FE53EC182BFCF769FF94EDF8
:10378000001B53EC112BFCF7BCFEBDEC028B41EC93
:10379000100B70BD000000009FED070B10B553EC3F
:1037A000102B9FED070B51EC100BFCF74EFD41EC7D
:1037B000100B10BD00000000000000000000000021
:1037C000000000000000F03F10B553EC102B51EC4E
:1037D000100BFCF796FE41EC100B10BD0000000032
:1037E0009FED050B10B553EC102B51EC100BFCF7B3
:1037F0002CFD41EC100B10BD00000000000000008B
:1038000002E008C8121F08C1002AFAD170477047A9
:10381000002001E001C1121F002AFBD17047000007
:1038200001490860704700003C00002010B50028E6
:1038300021D0114B0022001F196803E0814203D8F8
:103840000A4649680029F9D152B11368841A9C428A
:1038500004D1006818441060104602E0506000E097
:10386000186039B102680B1A934203D10B681A44ED
:1038700002604968416010BD34000020002400252A
:10388000FDF71EFEFFF7FAF9FFF712F9FFF734F91B
:10389000FFF750F96B48FEF729FBFFF765F86A4917
:1038A00008706A48007920F00800083067490871FC
:1038B0000B1D042208216648FEF73EFD6249087090
:1038C00019206249C8720846C37A0B220821604851
:1038D000FEF7C6FD5C4908705C4B5B1D05220821A4
:1038E0005B48FEF729FD5948407920F040005749D0
:1038F00048710846407920F0200020304871084681
:103900004379052208215248FEF7AAFD0020FFF75F
:103910007DF995E04D4B002208214D48FEF70CFD46
:103920004A4B1B1D042208214948FEF705FD474B61
:103930005B1D052208214648FEF7FEFC434B002292
:1039400008214348FEF7F8FC42480078012877D167
:103950003E4800780121B1EBD01F71D13E4800787C
:1039600000286DD13B4908706D1C601CC4B2FFF784
:1039700045FB35490870FCF7E9FF38494870FFF707
:1039800001FB31490870052C0DDC03213448FFF799
:10399000F5FB2D490870002032490871FFF78AFABB
:1039A0002E49087044E0052C42DD072C14DA274824
:1039B0000079C0F3C000F8B12448007920F0080075
:1039C0002249087108460379042208212048FEF79D
:1039D00047FD1D4908702BE0072C0ED1022120481D
:1039E0000C30FFF77FFB1849087002201D49087151
:1039F000FFF760FA194908701AE00A2C15DD134820
:103A00000079C0F3C00098B91048007920F0080090
:103A100008300E49087108460379042208210C4831
:103A2000FEF71EFD0849087002E00A2C00D10024B0
:103A3000FFF72EFB04490870FDF754F8074988701A
:103A400068E70000400000200000002088000020FF
:103A50002C0100201A0000201B000020070000207D
:103A600014010020C0000020F0B50B30154D20F0EF
:103A700007010024144A0FE003688B420BD38B42EA
:103A800005D95E1A43184768C3E9006700E0436838
:103A9000136002C004E0021D10680028ECD120462B
:103AA000002802D1286808B10020F0BD064A074866
:103AB0001060074A121A22F00702C0E90024012010
:103AC0002860D7E73800002034000020840100205F
:103AD0008003002000000000000000000102030439
:103AE00006070809000000000102030400000000AE
:103AF00004FA97999999D93FAF788E1DC571CC3F3B
:103B00009FC678D0099AC33F935555555555E53F03
:103B1000599322942449D23FDE03CB966446C73F93
:103B200044523EDF12F1C23F0000000000000000DE
:103B3000503B000800000020400000000038000852
:103B4000903B0008400000204007000010380008AB
:103B50000000000000000000000000000000000065
:103B60000000000000000000000000000000000055
:103B70000000000000000000100000000100000034
:103B80000024F4000000000000000000000000001D
:040000050800018965
:00000001FF
