:020000040800F2
:1000000040070020A1010008DB2A00081120000899
:10001000A52A00080D0500083D2F0008000000007B
:10002000000000000000000000000000DF2A0008BF
:100030004106000800000000DD2A0008E12A00084F
:10004000BB010008BB010008BB010008BB010008A0
:10005000BB010008BB010008BB010008BB01000890
:10006000BB010008BB010008BB010008BB01000880
:10007000BB010008BB010008BB010008BB01000870
:10008000BB010008BB010008BB010008BB01000860
:10009000BB010008BB010008BB010008BB01000850
:1000A000BB010008BB010008BB010008BB01000840
:1000B000BB010008B92B0008BB010008BB01000808
:1000C000BB010008BB010008BB010008BB01000820
:1000D000BB010008BB010008BB010008BB01000810
:1000E000BB010008BB010008BB010008BB01000800
:1000F000BB010008BB010008BB010008BB010008F0
:10010000BB010008BB010008BB010008BB010008DF
:10011000BB010008BB010008BB010008BB010008CF
:10012000BB010008BB010008BB010008BB010008BF
:10013000BB010008BB010008BB010008BB010008AF
:10014000BB010008BB010008BB010008BB0100089F
:10015000BB010008BB010008BB010008BB0100088F
:10016000BB010008BB010008BB010008BB0100087F
:10017000BB010008BB010008BB0100080000000033
:10018000BB010008BB010008DFF810D000F0ACF99B
:1001900000480047E92F0008AFF300804007002027
:1001A0000648804706480047FEE7FEE7FEE7FEE711
:1001B000FEE7FEE7FEE7FEE7FEE7FEE79D2B000811
:1001C000890100082DE9F05F0546002092469B4614
:1001D00088460646814640241BE02846414647465D
:1001E000224600F0DDF853465A46C01A914110D31A
:1001F00011461846224600F0C4F82D1A67EB010894
:100200004F4622460120002100F0BBF817EB000901
:100210004E41201EA4F10104DFDC484631462A4647
:100220004346BDE8F09FD2B201E000F8012B491E21
:10023000FBD270470022F6E710B513460A46044683
:100240001946FFF7F0FF204610BD2DE9F04D81EA79
:10025000030404F0004B21F0004514464FF0000A5F
:1002600023F0004150EA050220D054EA01021DD0DB
:10027000C5F30A570246C5F31303C1F31300C1F3D4
:100280000A5640F4801543F48013A7EB0608101BB0
:10029000D64608F2FD3873EB050002D308F10108D9
:1002A00001E092185B41B8F1000F03DA002001462B
:1002B000BDE8F08D00204FF48011064684460EE024
:1002C000171B73EB050705D3121B63EB05030643EE
:1002D0004CEA010C49084FEA300092185B4150EAA1
:1002E0000107EDD152EA030012D082EA040083EA4A
:1002F0000501084305D0101BAB4106D201220023A3
:1003000006E000224FF0004302E06FF001025310BC
:100310001AEB06004CEB085110EB0A0041EB0B0105
:10032000BDE8F04D00F083B80EB5C10F80EAE07073
:100330000844CA07002140F233438DE80E000A4604
:100340000B4600F083F803B000BD01F0004330B469
:1003500021F0004150EA010206D00A0DA2F56072B8
:10036000C1F31301002A02DC30BC00207047440FA7
:1003700044EAC104C100E01830BC00EBC25000F0F8
:100380001FB8202A04DB203A00FA02F1002070474F
:100390009140C2F1200320FA03F3194390407047C3
:1003A000202A04DB203A21FA02F00021704721FACA
:1003B00002F3D040C2F12002914008431946704731
:1003C0000029A8BF7047401C490008BF20F0010069
:1003D000704710B4B0FA80FC00FA0CF050EA010447
:1003E00004BF10BC704749B1CCF1200421FA04F4D9
:1003F00011FA0CF118BF012121430843A3EB0C01B2
:10040000CB1D4FEA00614FEA102042BF002010BC14
:10041000704700EBC35010440029A4BF10BC7047C4
:10042000401C490008BF20F0010010BC704710B507
:10043000141E73F1000408DA401C41F10001921807
:100440005B411A4301D120F0010010BD2DE9F04DB0
:1004500092469B4611B1B1FA81F202E0B0FA80F205
:1004600020329046FFF78DFF04460F4640EA0A000F
:1004700041EA0B0153465A46084313D0114653EA4A
:10048000010019D0C8F140025046FFF789FF054628
:100490000E46504659464246FFF773FF084305D0C3
:1004A000012004E020463946BDE8F08D00200543D8
:1004B00046EAE0762C4337430A986305E40AA0EB4A
:1004C00008000022FD0A44EA47540A3002D5002001
:1004D0000146E9E7010510196941DDE90845001900
:1004E0006941BDE8F04DA2E7064C074D06E0E06823
:1004F00040F0010394E8070098471034AC42F6D36B
:10050000FFF746FEFC3000081C31000800BFFEE784
:1005100070B503460C46002016E0802111E000F083
:1005200080051DB14506280E504001E04506280E05
:100530001D780D4005B150400D4601EBD576C6F350
:1005400047010029EBD15B1C251EA4F10106F4B282
:10055000E3D170BD00B5114B114A0F21114802F0D3
:1005600089FA114B114A0F210E4802F09DFA0C48EE
:10057000008841F2CC01884204D90D480078401C23
:100580000B4908700948008840F6C411884204D21B
:1005900008480078401C0749087000BD2A00002068
:1005A000200000201C0100202B0000202200002041
:1005B0002C0000202D0000203EB505201E4B0622F9
:1005C000082100901D4801F0DBFD04460CB12046D7
:1005D0003EBD052001AB062208210090174801F01E
:1005E00019FD04460CB12046F2E79DF804001249BB
:1005F000891F897988421BD19DF805000E49891F02
:10060000C979884214D19DF806000B49891F097ADF
:1006100088420DD19DF807000749891F497A884211
:1006200006D19DF808000449891F897A884201D0C3
:100630000320CDE70020CBE7EA000020480000209F
:10064000704770473EB53221012219481346CDE963
:100650000121009050221121164800F04FFC044661
:100660000CB101203EBD322101221148801C1346ED
:10067000CDE901210090592211210E4800F03EFCE5
:1006800004460CB10120EDE7322101220848401C4C
:100690001346CDE90121009051221121054800F0B7
:1006A0002DFC04460CB10120DCE70020DAE7000055
:1006B0001801002048000020F8B502460B4600252E
:1006C000002400200021D6E0012606FA01F51E686C
:1006D00006EA0504AC4274D11E7906F00306012E29
:1006E00004D01E7906F00306022E13D190684F0045
:1006F0000326BE40B0434F00DE68BE4030439060EA
:10070000506801268E40B0431E79C6F300168E4015
:10071000304350601E7906F00306032E09D0D068DE
:100720004F000326BE40B0434F009E68BE4030439A
:10073000D0601E7906F00306022E13D1CF0802F115
:10074000200656F827004E07F70E0F26BE40B0438E
:100750004F07FF0E1E69BE403043CF0802F120064E
:1007600046F8270010684F000326BE40B0431E79AC
:1007700006F003064F00BE40304310605E6806F48A
:100780004036002E76D000BF002600963C4E3668DC
:1007900046F480463A4F3E603E46366806F4804650
:1007A000009600BF00BF374E8F0856F827008E070F
:1007B000370F0F26BE40B043334EB24202D100265F
:1007C00024E057E0314EB24201D101261EE0304E06
:1007D000B24201D1022619E02E4EB24201D10326C7
:1007E00014E02D4EB24201D104260FE02B4EB2424E
:1007F00001D105260AE02A4EB24201D1062605E0C3
:10080000284EB24201D1072600E008268F073F0F8D
:10081000BE4030431B4E8F0846F82700224E3068FA
:10082000A0435E6806F4801606B120431E4E306079
:10083000361D3068A0435E6806F4001606B12043FA
:10084000194E361D3060184E361F3068A0435E6862
:1008500006F4003606B12043134E361F3060361FB3
:100860003068A0435E6806F4803606B120430E4E21
:10087000083E3060491C1029FFF426AFF8BD000087
:1008800044380240083801400000024000040240A1
:1008900000080240000C0240001002400014024018
:1008A00000180240001C0240083C01400AB181616E
:1008B00001E00B0483617047014800687047000045
:1008C0003000002070B504460CB9012070BD94F8CA
:1008D0003D0028B9002084F83C00204600F088FC48
:1008E000242084F83D002068006820F00100216881
:1008F00008602068006840F40040216808602068B3
:10090000006820F400402168086000F053FE0546AE
:100910005C496068884206D85B48854201D2012064
:1009200007E0002005E05948854201D2012000E09F
:100930000020012800D1C9E75548B5FBF0F6206832
:10094000406820F03F003043216848604D496068AE
:10095000884201D8701C07E04FF4967070434FF442
:100960007A71B0FBF1F0401C2168096A21F03F0167
:1009700008432168086243496068884214D8681EA9
:1009800061684900B0FBF1F0401CC0F30B00042883
:1009900001D204203DE0681E61684900B0FBF1F01F
:1009A000401CC0F30B0034E0A06838B9681E6168D1
:1009B00001EB4101B0FBF1F0401C0AE0681E6168E8
:1009C00001EBC10202EB0111B0FBF1F0401C40F45D
:1009D0008040C0F30B0008B901201AE0A06848B9B4
:1009E000681E616801EB4101B0FBF1F0401CC0F3EF
:1009F0000B000CE0681E616801EBC10202EB011103
:100A0000B0FBF1F0401CC0F30B0040F4804040F418
:100A100000402168C9694CF6FF7291430843216880
:100A2000C861D4E9070108432168096821F0C001C1
:100A3000084321680860D4E90310084321688968E5
:100A400048F2FF329143084321688860D4E90501E8
:100A500008432168C96821F0FF0108432168C86084
:100A60002068006840F001002168086000202064D0
:100A7000202084F83D000020206384F83E0000BF61
:100A800024E70000A086010080841E0000093D00CC
:100A900040420F002DE9F843044689461746984620
:100AA000089EFFF709FF054694F83D0020287DD1F8
:100AB00019230122B2492046009501F0A7FD10B18B
:100AC0000220BDE8F88300BF94F83C00012801D162
:100AD0000220F6E7012084F83C0000BF206800688F
:100AE00000F0010028B92068006840F0010021688A
:100AF00008602068006820F40060216808602220F7
:100B000084F83D00102084F83E00002020646762D5
:100B1000A4F82A80608D20859A48E0622B463246F0
:100B20004946204601F098FB08B10120C9E7208D15
:100B300088B900BF002000902068406900902068BC
:100B40008069009000BF00BF2068006840F400701A
:100B50002168086047E0208D012817D120680068CF
:100B600020F480602168086000BF002000902068A9
:100B70004069009020688069009000BF00BF206835
:100B8000006840F40070216808602CE0208D022885
:100B900018D12068006820F480602168086020680F
:100BA000006840F400602168086000E0E6E000BFF3
:100BB00000200090206840690090206880690090C3
:100BC00000BF10E02068006840F480602168086081
:100BD00000BF002000902068406900902068806974
:100BE000009000BF00BFBAE0208D03287ED8208D82
:100BF000012815D12A463146204601F0ACFD08B146
:100C000001205EE720680069616A0870606A401C24
:100C10006062208D401E2085608D401E60859EE0B4
:100C2000208D02282AD133460022574920460095BC
:100C300001F0ECFC08B1012043E72068006840F4B3
:100C400000702168086020680069616A0870606A45
:100C5000401C6062208D401E2085608D401E608596
:100C600020680069616A0870606A401C6062208DBB
:100C7000401E2085608D401E608570E03346002256
:100C800041492046009501F0C1FC08B1012018E758
:100C90002068006820F4806021680860206800698E
:100CA000616A0870606A401C6062208D401E208569
:100CB000608D401E608533460022334920460095F2
:100CC00001F0A4FC08B10120FBE62068006840F4B4
:100CD00000702168086020680069616A0870606AB5
:100CE000401C6062208D401E208500E010E0608D79
:100CF000401E608520680069616A0870606A401C57
:100D00006062208D401E2085608D401E608526E03B
:100D10002A463146204601F01EFD08B10120D0E6EA
:100D200020680069616A0870606A401C6062208DFA
:100D3000401E2085608D401E608520684069C0F39C
:100D4000800060B120680069616A0870606A401CB8
:100D50006062208D401E2085608D401E6085208D44
:100D600000287FF441AF202084F83D00002084F863
:100D70003E0000BF84F83C0000BFA2E60220A0E6CF
:100D8000020010000000FFFF040001002DE9F843FD
:100D90000446894616461F46DDF82080FFF78CFD85
:100DA000054694F83D0020287ED11923012251499F
:100DB0002046009501F02AFC10B10220BDE8F8831E
:100DC00000BF94F83C00012801D10220F6E7012081
:100DD00084F83C0000BF2068006800F0010028B9DA
:100DE0002068006840F00100216808602068006801
:100DF00020F4006021680860212084F83D00102064
:100E000084F83E000020206466626785608D20853E
:100E10003948E0622B4642464946204601F0B8FA7E
:100E200008B10120CAE700BF002000902068406997
:100E3000009020688069009000BF00BF44E02A460F
:100E40004146204601F0C7FC50B1206C042805D172
:100E50002068006840F40070216808600120ADE758
:100E6000606A007821680861606A401C6062608D79
:100E7000401E6085208D401E208520684069C0F39B
:100E8000800070B1208D60B1606A007821680861CF
:100E9000606A401C6062608D401E6085208D401E2F
:100EA00020852A46414600E022E0204601F080FBF2
:100EB00050B1206C042805D12068006840F400700F
:100EC00021680860012079E7208D0028B7D12068CB
:100ED000006840F4007021680860202084F83D001C
:100EE000002084F83E0000BF84F83C0000BF65E7A6
:100EF000022063E7020010000000FFFF2DE9FC5F05
:100F000004460F4690469946DDE90CAB0E9EFFF76E
:100F1000D3FC054694F83D00202870D11923012206
:100F2000B0492046009501F071FB10B10220BDE8E8
:100F3000FC9F00BF94F83C00012801D10220F6E795
:100F4000012084F83C0000BF2068006800F0010028
:100F500028B92068006840F0010021680860206816
:100F6000006820F4006021680860222084F83D00B9
:100F7000402084F83E0000202064C4F824A0A4F897
:100F80002AB0608D20859848E0624B46424639463B
:100F90002046CDE9006501F05BFA08B10120C6E703
:100FA000208D88B900BF0020019020684069019021
:100FB00020688069019000BF00BF2068006840F48D
:100FC00000702168086040E0208D012818D1206859
:100FD000006820F480602168086000BF0020019054
:100FE00020684069019020688069019000BF00BFBF
:100FF0002068006840F400702168086025E0EFE098
:10100000208D022816D12068006820F480602168B5
:1010100008602068006840F400602168086000BF34
:10102000002001902068406901902068806901904B
:1010300000BF0AE000BF00200190206840690190D5
:1010400020688069019000BF00BFBAE0208D0328AE
:101050007ED8208D012815D12A463146204601F040
:101060007AFB08B1012062E720680069616A0870B4
:10107000606A401C6062208D401E2085608D401E8D
:1010800060859EE0208D02282AD1334600225749F0
:101090002046009501F0BAFA08B1012047E7206820
:1010A000006840F400702168086020680069616A87
:1010B0000870606A401C6062208D401E2085608D33
:1010C000401E608520680069616A0870606A401C83
:1010D0006062208D401E2085608D401E608570E01E
:1010E0003346002241492046009501F08FFA08B1AD
:1010F00001201CE72068006820F4806021680860F7
:1011000020680069616A0870606A401C6062208D16
:10111000401E2085608D401E608533460022334985
:101120002046009501F072FA08B10120FFE6206820
:10113000006840F400702168086020680069616AF6
:101140000870606A401C6062208D401E208500E0AF
:1011500010E0608D401E608520680069616A08703B
:10116000606A401C6062208D401E2085608D401E9C
:10117000608526E02A463146204601F0ECFA08B1A7
:101180000120D4E620680069616A0870606A401C2A
:101190006062208D401E2085608D401E6085206825
:1011A0004069C0F3800060B120680069616A08701E
:1011B000606A401C6062208D401E2085608D401E4C
:1011C0006085208D00287FF441AF202084F83D0009
:1011D000002084F83E0000BF84F83C0000BFA6E673
:1011E0000220A4E6020010000000FFFF040001003E
:1011F00010B586B00446142101A8FFF71BF81B495F
:10120000206888422FD100BF002000901848006855
:1012100040F00200164908600846006800F002002D
:10122000009000BF00BFC02001901220029001205A
:101230000390032004900420059001A90D48FFF7B6
:101240003BFA00BF0020009009481030006840F4CD
:1012500000100749103108600846006800F40010CB
:10126000009000BF00BF06B010BD00000054004059
:1012700030380240000402400348006803490978FE
:101280000844014908607047300000203800002001
:1012900010B50D48006840F400700B49086008461E
:1012A000006840F4806008600846006840F4807080
:1012B0000860032000F0A2F8002000F007F800F01A
:1012C0002BF8002010BD0000003C024070B5044621
:1012D0000E4800784FF47A71B1FBF0F00C490968C0
:1012E000B1FBF0F5284600F01BFC08B1012070BDF1
:1012F000102C07D200222146501E00F041F805486C
:10130000046001E00120F2E70020F0E7380000204F
:101310003C0000203400002008B500BF00200090F1
:101320000E48006840F480400C4908600846006898
:1013300000F48040009000BF00BF00BF002000907C
:10134000081F006840F08050091F086008460068C8
:1013500000F08050009000BF00BF08BD443802403C
:1013600001460846002809DB00F01F0301229A40CD
:1013700043099B0003F1E023C3F8002100BF70473D
:101380002DE9F05F80460D461646002701F0D8FD96
:10139000074639462A46334601F00700C0F1070ADE
:1013A000BAF1040F02D94FF0040A01E0C0F1070AB4
:1013B000D14600F1040ABAF1070F02D24FF0000A39
:1013C00001E0A0F1030AD4464FF0010A0AFA09FA33
:1013D000AAF1010A0AEA020A0AFA0CFA4FF0010B12
:1013E0000BFA0CFBABF1010B0BEA030B4AEA0B0403
:1013F0002146404601F0ACFDBDE8F09F00BF00F083
:101400000702064B19684FF6FF031940044B0B43C4
:1014100043EA0221014B196000BF70470CED00E068
:101420000000FA0570B504460D460CB9012070BDE8
:101430005848006800F00700A84209D255490D70CD
:101440000846006800F00700A84201D00120EEE73E
:10145000207800F0020002281DD1207800F004005E
:10146000042805D14C48006840F4E0504A4908601F
:10147000207800F00800082805D14748006840F4AB
:101480006040454908604448006820F0F000A168C9
:10149000084341490860207800F00100A8B3606863
:1014A000012807D13C4808380068C0F34040B8B96B
:1014B0000120BCE76068022802D06068032807D1D9
:1014C000354808380068C0F3406048B90120AEE7ED
:1014D000314808380068C0F3400008B90120A6E789
:1014E0002D48006820F00300616808432A4908601D
:1014F000FFF7E2F9064609E0FFF7DEF9801B41F24B
:101500008831884202D9032091E707E02248006829
:1015100000F00C006168B0EB810FEDD11D48006850
:1015200000F00700A84209D91A490D700846006862
:1015300000F00700A84201D0012078E7207800F0F1
:101540000400042807D11448006820F4E050E16842
:10155000084311490860207800F00800082808D1E5
:101560000D48006820F46040216940EAC1000A4942
:10157000086000F02FF808490968C1F30311074A11
:10158000515CC8400649086006480068FFF79EFEA7
:1015900000204CE7003C024008380240E4300008DC
:1015A0003C00002034000020014800687047000023
:1015B0003C00002000B5FFF7F7FF04490968C1F3BC
:1015C0008221034A515CC84000BD00000838024037
:1015D000F43000082DE9F047002400250026A1463C
:1015E0002548006800F00C0020B1042805D0082828
:1015F0003AD105E0DFF8849039E0DFF8849036E0F6
:101600001D48001F006800F03F041B48001F0068D1
:1016100000F4800078B11A481749091F0968C1F31E
:101620008811A0FB01700146224600233846FEF7D0
:10163000C9FD05460EE011480F49091F0968C1F3AD
:101640008811A0FB01700146224600233846FEF7B0
:10165000B9FD05460848001F0068C0F30140401C62
:101660004600B5FBF6F902E0DFF8109000BF00BFBE
:101670004846BDE8F0870000083802400024F40026
:1016800000127A00F8B504460CB90120F8BD2078A4
:1016900000F00100002874D0F948006800F00C0048
:1016A00004280DD0F648006800F00C00082813D17B
:1016B000F348001F006800F48000B0F5800F0BD1E4
:1016C000EF4808380068C0F34040002859D06068EF
:1016D000002856D10120D9E700BF6068B0F5803FEF
:1016E00008D1E7480838006840F48030E4490839F8
:1016F00008601EE06068B0F5A02F0DD1E048083802
:10170000006840F48020DE49083908600846006817
:1017100040F4803008600CE0D9480838006820F4B4
:101720008030D749083908600846006820F48020D6
:10173000086000BF606890B1FFF7BEF8054606E09C
:10174000FFF7BAF8401B642801D903209EE7CC4874
:1017500008380068C0F340400028F1D011E0FFF7DE
:10176000ABF8054606E0FFF7A7F8401B642801D94F
:1017700003208BE7C24808380068C0F340400028C7
:10178000F1D1207800F0020002285FD1BC48006847
:1017900000F00C0058B1BA48006800F00C000828AE
:1017A0001CD1B748001F006800F48000B0B9B448ED
:1017B00008380068C0F3400020B1E068012801D07B
:1017C000012063E7AE480838006820F0F80021697E
:1017D00040EAC100AA490839086037E0E06800B370
:1017E0000120A8490860FFF767F8054606E0FFF703
:1017F00063F8401B022801D9032047E7A0480838B6
:101800000068C0F340000028F1D09D480838006807
:1018100020F0F800216940EAC100994908390860C0
:1018200014E0002097490860FFF746F8054606E0F7
:10183000FFF742F8401B022801D9032026E7904811
:1018400008380068C0F340000028F1D1207800F08B
:10185000080008282CD16069A8B101208A490860D5
:10186000FFF72AF8054606E0FFF726F8401B022896
:1018700001D903200AE782486C300068C0F34000B9
:101880000028F1D014E000207F490860FFF714F829
:10189000054606E0FFF710F8401B022801D9032097
:1018A000F4E677486C300068C0F340000028F1D1BE
:1018B000207800F00400042870D1002770483830E8
:1018C000006800F0805090B900BF002000906C4884
:1018D0003830006840F08050694938310860084667
:1018E000006800F08050009000BF00BF01276748EB
:1018F000006800F48070B0B96448006840F48070FB
:1019000062490860FEF7D8FF054606E0FEF7D4FFFF
:10191000401B022801D90320B8E65C48006800F4A7
:1019200080700028F2D000BFA068012808D1544878
:101930006830006840F001005149683108601DE0DE
:10194000A06805280DD14E486830006840F00400BA
:101950004B49683108600846006840F001000860A3
:101960000CE047486830006820F0010044496831C5
:1019700008600846006820F00400086000BFA06806
:10198000A8B1FEF799FF054609E0FEF795FF401B59
:1019900041F28831884202D9032077E626E03848B0
:1019A00068300068C0F340000028EED013E0FEF776
:1019B00083FF054608E0FEF77FFF401B41F28831B8
:1019C000884201D9032061E62D4868300068C0F3E1
:1019D00040000028EFD1012F07D129483830006896
:1019E00020F0805026493831086000BFA0690028E7
:1019F00045D02348006800F00C0008285DD0A0699D
:101A0000022845D100201F490866FEF755FF05460C
:101A100006E0FEF751FF401B022801D9032035E6FE
:101A2000174808380068C0F340600028F1D1D4E9B5
:101A300007010843616A40EA81110122A06AC2EBF2
:101A4000500041EA00412C20005D41EA00600C4951
:101A5000091F086001200B490866FEF72DFF0546A7
:101A600006E0FEF729FF401B022801D903200DE6FE
:101A7000034808380068C0F340600028F1D049E00E
:101A80000838024000004742800E47420070004084
:101A9000002021490866FEF70FFF054606E0FEF725
:101AA0000BFF401B022801D90320EFE51B4800680B
:101AB000C0F340600028F2D12CE0A069012800D1D9
:101AC000E4E51648001D0668A069012820D006F448
:101AD0008001E06981421BD106F03F01206A81420A
:101AE00016D147F6C0703040616AB0EB811F0FD14C
:101AF00006F440310122A06AC2EB5000B1EB004F66
:101B000006D106F070612C20005DB1EB006F01D0B2
:101B10000120BBE50020B9E5000047420038024043
:101B200070B504462546681EB0F1807F01D30120C0
:101B30000FE0681E4FF0E02148610F214FF0FF30A9
:101B400001F006FA00204FF0E021886107200861CB
:101B5000002070BD7047704730B502460B4600BF8D
:101B600092F83C00012801D1022030BD012082F80A
:101B70003C0000BF022082F83D00106844681068F5
:101B8000816824F070041868044310684460184D9C
:101B90001068A8421BD01068B0F1804F17D0154DC7
:101BA0001068A84213D0144D1068A8420FD0134DEE
:101BB0001068A8420BD0124D1068A84207D0114DF2
:101BC0001068A84203D0104D1068A84205D121F03A
:101BD00080015868014310688160012082F83D004F
:101BE00000BF002082F83C0000BF00BFBDE700003E
:101BF000000001400004004000080040000C0040CC
:101C000000040140004001400018004010B50446A7
:101C10000CB9012010BD94F83D0028B9002084F8CB
:101C20003C00204600F026F8022084F83D00211DEB
:101C3000206800F0CDFF012084F8460000BF84F842
:101C40003E0001213F200155402001554120015512
:101C500000BF00BF012084F842004320015544200A
:101C600001554520015500BF012084F83D000020AA
:101C7000D0E7000038B504460E492068884217D1E5
:101C800000BF002000900C48006840F002000A49A4
:101C900008600846006800F00200009000BF00BF26
:101CA000002211461D20FFF76BFB1D20FFF758FB9C
:101CB00038BD00000004004040380240014691F861
:101CC0003D00012801D001207047022081F83D002D
:101CD0000868C06840F001000B68D8601A4B0868BB
:101CE00098421BD00868B0F1804F17D0174B086896
:101CF000984213D0164B086898420FD0154B0868CD
:101D000098420BD0144B0868984207D0134B0868D0
:101D1000984203D0124B086898420CD1086880683A
:101D200000F00702062A0CD00868006840F00100A5
:101D30000B68186005E00868006840F001000B6857
:101D400018600020C0E700000000014000040040CF
:101D500000080040000C0040000401400040014029
:101D6000001800402DE9F04104460D46002700BF51
:101D700094F83C00012802D10220BDE8F081012046
:101D800084F83C0000BF022084F83D00206886688B
:101D900026F0770626F47F4620688660286850285B
:101DA00033D00CDC202850D004DC00284BD0102885
:101DB00051D149E0302849D040284CD139E0602841
:101DC0002DD0702807D0B0F5805F03D0B0F5005F4C
:101DD00041D10DE041E0D5E902136A68206800F0C6
:101DE00063FF2068866846F077062068866034E0E6
:101DF000D5E902136A68206800F056FF2068806801
:101E000040F480402168886027E0EA6869682068BB
:101E100000F05EFF5021206800F051FF1DE0EA68ED
:101E20006968206800F067FF6021206800F047FFC4
:101E300013E0EA686968206800F04AFF40212068E2
:101E400000F03DFF09E000BF00BF00BF2968206827
:101E500000F035FF01E0012700BF00BF012084F83A
:101E60003D0000BF002084F83C0000BF384684E7F6
:101E7000704710B5044620680069C0F34000D8B12F
:101E80002068C068C0F34000B0B16FF00200216864
:101E90000861012020772068806900F0030018B1F4
:101EA0002046FFF7E5FF05E0204600F0ADF82046AC
:101EB00000F0ABF80020207720680069C0F38000B4
:101EC000D8B12068C068C0F38000B0B16FF00400E2
:101ED00021680861022020772068806900F4407042
:101EE00018B12046FFF7C4FF05E0204600F08CF84B
:101EF000204600F08AF80020207720680069C0F3AF
:101F0000C000D8B12068C068C0F3C000B0B16FF0A5
:101F1000080021680861042020772068C06900F06B
:101F2000030018B12046FFF7A3FF05E0204600F0AC
:101F30006BF8204600F069F80020207720680069DF
:101F4000C0F30010D8B12068C068C0F30010B0B171
:101F50006FF0100021680861082020772068C069B0
:101F600000F4407018B12046FFF782FF05E02046DC
:101F700000F04AF8204600F048F80020207720685A
:101F8000006900F0010058B12068C06800F001004D
:101F900030B16FF0010021680861204600F036F88A
:101FA00020680069C0F3C01058B12068C068C0F351
:101FB000C01030B16FF08000216808612046FFF743
:101FC000C9FD20680069C0F3801058B12068C0685E
:101FD000C0F3801030B16FF04000216808612046E6
:101FE00000F015F820680069C0F3401058B120686F
:101FF000C068C0F3401030B16FF020002168086164
:102000002046FFF7A8FD10BD704770477047704726
:1020100000BFFEE72DE9FF4F83B00F461D46DDF8F8
:1020200040800024A146A3464FEA480001F024F86E
:102030008146B9F1000F03D1042007B0BDE8F08F4D
:102040004C4632207900012305AA00900398FEF740
:102050009DFE06460EB10120EFE732204FEA48030D
:102060000090012000EB470122462248FEF712FDB6
:1020700006460EB10120E0E711208DF80800207817
:102080008DF809000722022102A8FEF741FA8346D3
:10209000641C2078584506D0484600F07DFF4FF07C
:1020A00000090220C9E714F8010C28704FF0010A5A
:1020B00017E0641C072201212046FEF729FA834617
:1020C000641C6D1C2078584506D0484600F064FF1B
:1020D0004FF000090220B0E714F8010C28700AF153
:1020E000010AC245E5DB484600F056FF4FF0000903
:1020F0000020A2E7480000202DE9FF4707460C46D4
:1021000015461E4603954FF00008C146C2463220D0
:102110006100012303AA00903846FEF737FE82468D
:1021200032200090012000EB4401022302AA38462D
:10213000FEF7B0FC8146B9F1000F02D1BAF1000FF1
:1021400003D0012004B0BDE8F087012000EB44007B
:10215000C0B28DF804009DF808008DF80500072234
:10216000022101A8FEF7D4F980469DF809004045F8
:1021700001D00220E6E79DF8080030700020E1E77A
:102180002DE9F84F0F4693461E46DDF828804FEAAA
:102190004801881C00F070FF054615B90420BDE811
:1021A000F88F2C467806000E2070641C84F800B06E
:1021B000641C30782070641C072203212846FEF737
:1021C000A7F920704FF001090CE0641C761C3078F0
:1021D0002070072201212046FEF79AF96070641CE6
:1021E00009F10109C145F0DB322000904FEA4800B7
:1021F000431C79006A1C0748FEF7C8FD8246BAF105
:10220000000F01D00120CAE7284600F0C5FE0025D6
:102210000020C4E748000020014608684069C0F378
:102220008020B0B16FF480600A68506100200863BC
:10223000202081F83D00002081F83E00086C40F02D
:102240000400086400BF002081F83C0000BF0120AA
:1022500070470020FCE700002DE9F84304460D46D6
:1022600090461E46E76A2068006840F48060216856
:102270000860082F04D0012F02D017F5803F06D147
:102280002068006840F480702168086008E0206BD6
:10229000112805D12068006840F48070216808602A
:1022A000434600224FF001112046009600F0AEF99F
:1022B00060B12068006800F48070B0F5807F02D1C2
:1022C0004FF4007020640320BDE8F8832069B0F566
:1022D000804F05D1E8B240F001002168086149E073
:1022E00005F44070F02141EAE010216808613346AE
:1022F00042462649204600F0CCF908B10120E3E728
:10230000E8B221680861334642462049891F2046C9
:1023100000F0BFF908B10120D6E700BF002000900F
:1023200020684069009020688069009000BF00BF6D
:102330002068006840F480702168086043460022ED
:102340004FF001112046009600F060F958B1206866
:10235000006800F48070B0F5807F02D14FF4007007
:1023600020640320B0E705F44070F12141EAE01059
:1023700021680861334642460449891F204600F01F
:1023800088F908B101209FE700209DE708000100BF
:102390002DE9F84304460D4617469846E66A082E8E
:1023A00004D0012E02D016F5803F06D120680068C7
:1023B00040F480702168086008E0206B122805D185
:1023C0002068006840F48070216808603B46002265
:1023D0004FF001112046CDF8008000F017F960B1F0
:1023E0002068006800F48070B0F5807F02D14FF45F
:1023F000007020640320BDE8F8832069B0F5804FA9
:1024000004D105F0FE002168086112E005F4407077
:10241000F02141EAE0102168086143463A460B4941
:10242000204600F036F908B10120E4E7E8B221685F
:10243000086143463A460549891F204600F029F9BC
:1024400008B10120D7E70020D5E70000080001000F
:102450002DE9F84304460F4615469946DDE90886FE
:102460002068006840F48060216808602068006887
:1024700040F4807021680860434600224FF001114B
:102480002046009600F0C2F860B12068006800F4B1
:102490008070B0F5807F02D14FF40070206403207B
:1024A000BDE8F88307F0FE00216808613346424624
:1024B0003E49204600F0EDF808B10120F0E700BFEA
:1024C000002000902068406900902068806900909A
:1024D00000BF00BF32464146204600F07CF950B1B3
:1024E000206C042805D12068006840F40070216841
:1024F00008600120D4E7B9F1010F03D1E8B22168E7
:10250000086117E0C5F3072021680861324641469B
:10251000204600F060F950B1206C042805D12068F5
:10252000006840F40070216808600120B8E7E8B254
:102530002168086132464146204600F04CF950B10E
:10254000206C042805D12068006840F400702168E0
:1025500008600120A4E72068006840F480702168CA
:102560000860434600224FF001112046009600F01B
:102570004DF858B12068006800F48070B0F5807F95
:1025800002D14FF400702064032089E7F8B240F0D4
:10259000010021680861334642460449204600F0A4
:1025A00078F808B101207BE7002079E702000100FC
:1025B00070B504460D46164620E02046FFF72CFE77
:1025C00008B1012070BD681CC0B1FEF775F9801B11
:1025D000A84200D895B900202063202084F83D004F
:1025E000002084F83E00206C40F02000206400BFF2
:1025F000002084F83C0000BF0120E3E72068406928
:10260000C0F380000028D8D00020DBE72DE9F0419E
:1026100004460D4617461E46DDF818801CE0701C67
:10262000D0B1FEF749F9A0EB0800B04200D89EB93E
:1026300000202063202084F83D00002084F83E0024
:10264000206C40F02000206400BF002084F83C0093
:1026500000BF0120BDE8F081C5F3074001280AD181
:1026600020684069A9B20840A9B2884201D101207E
:102670000BE0002009E020688069A9B20840A9B2F7
:10268000884201D1012000E00020B842C7D00020DC
:10269000E0E72DE9F04104460D4616461F463DE0B1
:1026A00020684069C0F38020E8B12068006840F4E9
:1026B0000070216808606FF4806021684861002024
:1026C0002063202084F83D00002084F83E00206C28
:1026D00040F00400206400BF002084F83C0000BFEC
:1026E0000120BDE8F081701CC0B1FEF7E5F8C01B09
:1026F000B04200D896B900202063202084F83D0025
:10270000002084F83E00206C40F02000206400BFD0
:10271000002084F83C0000BF0120E2E7C5F3074039
:1027200001280AD120684069A9B20840A9B28842AC
:1027300001D101200BE0002009E020688069A9B2E6
:102740000840A9B2884201D1012000E00020002801
:10275000A6D00020C5E770B504460D46164632E007
:1027600020684069C0F30010A0B16FF0100021682C
:10277000486100202063202084F83D00002084F878
:102780003E00206C206400BF002084F83C0000BFA5
:10279000012070BDFEF790F8801BA84200D895B9C3
:1027A00000202063202084F83D00002084F83E00B3
:1027B000206C40F02000206400BF002084F83C0022
:1027C00000BF0120E5E720684069C0F380100028C1
:1027D000C6D00020DDE770B504460D46164620E061
:1027E0002046FFF719FD08B1012070BD681CC0B17B
:1027F000FEF762F8801BA84200D895B9002020633C
:10280000202084F83D00002084F83E00206C40F039
:102810002000206400BF002084F83C0000BF01209D
:10282000E3E720684069C0F3C0100028D8D000203A
:10283000DBE7000010B52DED048B4C48807920F0CB
:1028400018000830494988710846807920F007004F
:10285000801C88710846C07920F070005030C87123
:102860000846C07920F00F00401CC8710846007A65
:1028700020F03000103008720846007A20F0C000C6
:1028800080300872FDF7DEFE04461CB12046BDEC28
:10289000048B10BD354991F8341001F00C0140F261
:1028A0006D1202EB4101314A92F8362001EB5210D1
:1028B000FDF73AFD41EC190B9FED2D0B53EC102B5E
:1028C000FDF7C3FC41EC180BFDF73FFD2A490860FA
:1028D000264890F8340000F00C0040F26D1101EB36
:1028E0004000224991F8361000EB5110234908604E
:1028F0001E4890F8350041F2CC01081A00EE100A8B
:10290000B8EE400A1C48D0ED000A80EE201AB6EE60
:10291000000A31EE000ABCEEC00A10EE100A00F602
:10292000F870C0F3071011494872084690F8350056
:1029300040F6C411081A00EE100AB8EE400A0E481C
:10294000D0ED000A80EE201AB6EE000A31EE000A41
:10295000BCEEC00A10EE100AC0F3071003498872DB
:10296000FDF72AFE0446204691E70000E40000201F
:102970000000000000408F400400002008000020FC
:1029800008B500BF002000900E48006840F08000AD
:102990000C4908600846006800F08000009000BF05
:1029A00000BF00BF002000900846006840F0020011
:1029B00008600846006800F00200009000BF00BFF9
:1029C00008BD00003038024010B50B480B490860C4
:1029D0000B484860002109488160C1604FF4804184
:1029E0000161002141618161C1610162FDF76AFFFE
:1029F00008B1FDF726FE10BD00540040480000203D
:102A0000A086010000B587B00020039004900590D7
:102A100006900190029015481549086042F20F7027
:102A2000486000211248816042F2CF01C16000215C
:102A300001618161FFF7EAF808B1FDF702FE4FF48A
:102A40008050039003A90A48FFF78CF908B1FDF7FD
:102A5000F8FD00200190029001A90548FFF77CF8DD
:102A600008B1FDF7EEFD07B000BD00000004004016
:102A70009C000020F0B504460D46002020460021B1
:102A8000118000BF0BE006881788BE4202DD068871
:102A9000168019700688761C06804E1CF1B2A94279
:102AA000F1DDF0BD00BFFEE7F0B504460D460020A5
:102AB00020464FF6FF71118000210BE00688178831
:102AC000BE4202DA0688168019700688761C0680D7
:102AD0004E1CF1B2A942F1DDF0BD7047704770475E
:102AE00010B5FEF7C9FB10BD00B593B0302107A8A3
:102AF000FDF7A0FB142102A8FDF79CFB00BF0020FE
:102B000001902448006840F080502249086008463F
:102B1000006800F08050019000BF00BF00BF00209F
:102B200001901D48006840F480401B490860084639
:102B3000006800F48040019000BF00BF01200790B2
:102B40000004089002200D9041050E9104210F9180
:102B5000A8211091022111910421129107A8FEF7DA
:102B600091FD08B1FDF76DFD0F200290022003904A
:102B7000002004904FF4A05005904FF48050069030
:102B8000052102A8FEF74EFC08B1FDF75AFD13B06F
:102B900000BD000040380240007000400548006859
:102BA00040F47000034908604FF00060014980392B
:102BB0000860704788ED00E010B50348FFF759F949
:102BC00001200249087010BD9C0000201200002066
:102BD00010B50268294B98420ED0B0F1804F0BD04F
:102BE000274B984208D0274B984205D0264B984255
:102BF00002D0264B984203D122F070024B681A4350
:102C00001E4B984220D0B0F1804F1DD01C4B9842F3
:102C10001AD01C4B984217D01B4B984214D01B4B18
:102C2000984211D01A4B98420ED01A4B98420BD0B2
:102C3000194B984208D0194B984205D0184B98422E
:102C400002D0184B984203D122F44072CB681A4349
:102C500022F080034C6943EA040202608B68C3627D
:102C60000B688362054B984202D0084B984201D111
:102C70000B6903630123436110BD000000000140A4
:102C80000004004000080040000C00400004014027
:102C9000004001400044014000480140001800404D
:102CA000001C00400020004030B50C46816821F433
:102CB0007F4142EA032525432943816030BD0A460E
:102CC000816821F0700142F0070319438160704769
:102CD00030B50B461446026A056A25F00105056207
:102CE000816921F0F00141EA041122F00A021A433D
:102CF0008161026230BD30B50B461446056A25F08D
:102D0000100505628169026A21F4704141EA0431CB
:102D100022F0A00242EA03128161026230BD00008B
:102D200010B5144B144A03211448FFF7A3FE144BAB
:102D3000144A03211148FFF7B7FE124800880528FE
:102D400009DA012211031048FDF7B0FD0F480078A1
:102D5000401C0E49087008480088552809DD0122EA
:102D600051030948FDF7A2FD09480078401C0849B5
:102D7000087010BD28000020240000201A00002048
:102D80002900002026000020000C02401000002036
:102D90001100002038B50220184B2A22082100908B
:102DA0001748FFF737F9044614482A3890F82B00E3
:102DB00012492A3991F82A1000EB012000EE100A7E
:102DC000F8EEC00A0D482A3890F83500C0EB001024
:102DD00000EE100AB8EEC00A0A4890ED001AF1EEB3
:102DE000001A21EE211A01EE200ABCEEC00A10EEF4
:102DF000100A05490880204638BD00000E01002059
:102E0000480000200400002018000020F8B500242D
:102E10000025002700261E201B4B0C2208210090B5
:102E20001A48FFF7F7F81A4908700846007810B1F9
:102E300008460078F8BD144D0020164908600024AB
:102E40001DE06878297800EB012713480068784373
:102E50004FF47A71B0FBF1F60B480C3890F835005E
:102E600006440E4921F81460084630F81400094958
:102E70000968084407490860AD1C601CC4B20F2CE7
:102E8000DFDB0020D6E70000F00000204800002033
:102E90000000002014000020080000201C01002079
:102EA00038B50220044B3222082100900348FFF776
:102EB000B1F80446204638BD160100204800002025
:102EC0002DE9F8430027B94600240025DFF860808B
:102ED0000620184B2C22082100901748FFF79AF87B
:102EE000064616B13046BDE8F883124D00271AE0B9
:102EF0006878297800EB01294FF4BF7009FB00F0D6
:102F00004FF47A71B0FBF1F442F21070604340F676
:102F1000E441091BB0FBF1F0A8F8000008F1020839
:102F2000AD1C781CC7B2032FE2DB3046DBE70000A4
:102F30001A000020100100204800002000BFFEE71A
:102F400002480068C0F30220704700000CED00E06A
:102F500010B5002804DB0A07130E054A135406E0D7
:102F60000A07140E034A00F00F031B1FD45410BDB0
:102F700000E400E018ED00E002E008C8121F08C1FC
:102F8000002AFAD170477047002001E001C1121FEA
:102F9000002AFBD17047000010B5002821D0114B4A
:102FA0000022001F196803E0814203D80A464968DD
:102FB0000029F9D152B11368841A9C4204D10068E7
:102FC00018441060104602E0506000E0186039B10B
:102FD00002680B1A934203D10B681A4402604968D5
:102FE000416010BD40000020FEF752F9FFF77CFD64
:102FF000FFF7C6FCFFF7E8FCFFF704FD1948FEF7F2
:103000005DFEFFF717FC184908701848007920F09A
:1030100008000830154908710B1D042208211448C6
:10302000FFF76AF8104908701AE012480078012882
:1030300016D100200F490870FFF7E8FE0A49087012
:10304000FDF788FAFFF7A6FE07490870FFF738FF7B
:1030500005490870FFF764FEFFF722FF0249087078
:10306000E3E700009C00002000000020E4000020B6
:103070004800002012000020F0B50B30154D20F064
:1030800007010024144A0FE003688B420BD38B42E4
:1030900005D95E1A43184768C3E9006700E0436832
:1030A000136002C004E0021D10680028ECD1204625
:1030B000002802D1286808B10020F0BD064A074860
:1030C0001060074A121A22F00702C0E9002401200A
:1030D0002860D7E744000020400000204401002081
:1030E0004003002000000000000000000102030473
:1030F0000607080900000000010203041C31000853
:103100000000002048000000782F0008643100080B
:1031100048000020F8060000882F0008000000008A
:10312000000000000000000000000000000000009F
:10313000000000000000000000000000000000008F
:10314000000000000000000000000000000000007F
:1031500010000000010000000024F4000000000046
:04316000000000006B
:040000050800018965
:00000001FF
