:020000040800F2
:1000000040070020A101000885230008291A0008E4
:10001000512300080D050008C92700080000000052
:10002000000000000000000000000000892300081C
:100030004106000800000000872300088B23000809
:10004000BB010008BB010008BB010008BB010008A0
:10005000BB010008BB010008BB010008BB01000890
:10006000BB010008BB010008BB010008BB01000880
:10007000BB010008BB010008BB010008BB01000870
:10008000BB010008BB010008BB010008BB01000860
:10009000BB010008BB010008BB010008BB01000850
:1000A000BB010008BB010008BB010008BB01000840
:1000B000BB01000861240008BB010008BB01000867
:1000C000BB010008BB010008BB010008BB01000820
:1000D000BB010008BB010008BB010008BB01000810
:1000E000BB010008BB010008BB010008BB01000800
:1000F000BB010008BB010008BB010008BB010008F0
:10010000BB010008BB010008BB010008BB010008DF
:10011000BB010008BB010008BB010008BB010008CF
:10012000BB010008BB010008BB010008BB010008BF
:10013000BB010008BB010008BB010008BB010008AF
:10014000BB010008BB010008BB010008BB0100089F
:10015000BB010008BB010008BB010008BB0100088F
:10016000BB010008BB010008BB010008BB0100087F
:10017000BB010008BB010008BB0100080000000033
:10018000BB010008BB010008DFF810D000F0ACF99B
:100190000048004759280008AFF3008040070020BE
:1001A0000648804706480047FEE7FEE7FEE7FEE711
:1001B000FEE7FEE7FEE7FEE7FEE7FEE74524000870
:1001C000890100082DE9F05F0546002092469B4614
:1001D00088460646814640241BE02846414647465D
:1001E000224600F0DDF853465A46C01A914110D31A
:1001F00011461846224600F0C4F82D1A67EB010894
:100200004F4622460120002100F0BBF817EB000901
:100210004E41201EA4F10104DFDC484631462A4647
:100220004346BDE8F09FD2B201E000F8012B491E21
:10023000FBD270470022F6E710B513460A46044683
:100240001946FFF7F0FF204610BD2DE9F04D81EA79
:10025000030404F0004B21F0004514464FF0000A5F
:1002600023F0004150EA050220D054EA01021DD0DB
:10027000C5F30A570246C5F31303C1F31300C1F3D4
:100280000A5640F4801543F48013A7EB0608101BB0
:10029000D64608F2FD3873EB050002D308F10108D9
:1002A00001E092185B41B8F1000F03DA002001462B
:1002B000BDE8F08D00204FF48011064684460EE024
:1002C000171B73EB050705D3121B63EB05030643EE
:1002D0004CEA010C49084FEA300092185B4150EAA1
:1002E0000107EDD152EA030012D082EA040083EA4A
:1002F0000501084305D0101BAB4106D201220023A3
:1003000006E000224FF0004302E06FF001025310BC
:100310001AEB06004CEB085110EB0A0041EB0B0105
:10032000BDE8F04D00F083B80EB5C10F80EAE07073
:100330000844CA07002140F233438DE80E000A4604
:100340000B4600F083F803B000BD01F0004330B469
:1003500021F0004150EA010206D00A0DA2F56072B8
:10036000C1F31301002A02DC30BC00207047440FA7
:1003700044EAC104C100E01830BC00EBC25000F0F8
:100380001FB8202A04DB203A00FA02F1002070474F
:100390009140C2F1200320FA03F3194390407047C3
:1003A000202A04DB203A21FA02F00021704721FACA
:1003B00002F3D040C2F12002914008431946704731
:1003C0000029A8BF7047401C490008BF20F0010069
:1003D000704710B4B0FA80FC00FA0CF050EA010447
:1003E00004BF10BC704749B1CCF1200421FA04F4D9
:1003F00011FA0CF118BF012121430843A3EB0C01B2
:10040000CB1D4FEA00614FEA102042BF002010BC14
:10041000704700EBC35010440029A4BF10BC7047C4
:10042000401C490008BF20F0010010BC704710B507
:10043000141E73F1000408DA401C41F10001921807
:100440005B411A4301D120F0010010BD2DE9F04DB0
:1004500092469B4611B1B1FA81F202E0B0FA80F205
:1004600020329046FFF78DFF04460F4640EA0A000F
:1004700041EA0B0153465A46084313D0114653EA4A
:10048000010019D0C8F140025046FFF789FF054628
:100490000E46504659464246FFF773FF084305D0C3
:1004A000012004E020463946BDE8F08D00200543D8
:1004B00046EAE0762C4337430A986305E40AA0EB4A
:1004C00008000022FD0A44EA47540A3002D5002001
:1004D0000146E9E7010510196941DDE90845001900
:1004E0006941BDE8F04DA2E7064C074D06E0E06823
:1004F00040F0010394E8070098471034AC42F6D36B
:10050000FFF746FE6C2900088C290008FEE770B54D
:1005100003460C46002016E0802111E000F0800523
:100520001DB14506280E504001E04506280E1D78F5
:100530000D4005B150400D4601EBD576C6F347019D
:100540000029EBD15B1C251EA4F10106F4B2E3D116
:1005500070BD000000B5114B114A0F21114801F088
:10056000DFFE114B114A0F210E4801F0F2FE0C483C
:10057000008841F2CC01884204D90D480078401C23
:100580000B4908700948008840F6C411884204D21B
:1005900008480078401C0749087000BD2A00002068
:1005A000200000201C0100202B0000202200002041
:1005B0002C0000202D0000203EB505201E4B0622F9
:1005C000082100901D4801F0E7FA04460CB12046CE
:1005D0003EBD052001AB062208210090174801F01E
:1005E00025FA04460CB12046F2E79DF804001249B2
:1005F000891F897988421BD19DF805000E49891F02
:10060000C979884214D19DF806000B49891F097ADF
:1006100088420DD19DF807000749891F497A884211
:1006200006D19DF808000449891F897A884201D0C3
:100630000320CDE70020CBE7EA000020480000209F
:10064000704770473EB53221012219481346CDE963
:100650000121009050221121164800F07BFB044636
:100660000CB101203EBD322101221148801C1346ED
:10067000CDE901210090592211210E4800F06AFBBA
:1006800004460CB10120EDE7322101220848401C4C
:100690001346CDE90121009051221121054800F0B7
:1006A00059FB04460CB10120DCE70020DAE700002A
:1006B00018010020480000202DE9F84FDFF8BCA108
:1006C0000022012503264FF00F090AF1040BAAF1BD
:1006D000040E00BF0B6805FA02F42340A34270D158
:1006E0000F7907F00307012F01D0022F16D1876879
:1006F0004FEA420806FA08FC27EA0C07D1F80CC0BA
:100700000CFA08FC4CEA070CC0F808C04768A7437D
:100710000C79C4F3001494403C4344600C79E443E6
:10072000A4070AD0C4684FEA420C06FA0CF7BC438F
:100730008F6807FA0CF72743C7600C7904F00304AD
:10074000022C12D1D40800EB840CDCF820405707AF
:10075000FF0E09FA07F824EA0804D1F8108008FA15
:1007600007F848EA0408CCF8208004684FEA420CF5
:1007700006FA0CF7BC430F7907F0030707FA0CF7EA
:10078000274307604C6814F4403F70D03C4C276806
:1007900047F480472760246822F0030704F480446C
:1007A0000094384C07EB040CDCF8084897074FEA34
:1007B000177809FA08F7BC43334FB84202D1002733
:1007C00024E054E0314FB84201D101271EE0304F00
:1007D000B84201D1022719E02E4FB84201D10327B8
:1007E00014E02D4FB84201D104270FE02B4FB8423F
:1007F00001D105270AE02A4FB84201D1062705E0BA
:10080000284FB84201D1072700E0082707FA08F768
:100810002743CCF80878DAF800405746D1F804C0EE
:100820009C435FEACC2C00D51C433C60DBF80040C5
:100830005F46D1F804C09C435FEA8C2C00D51C4372
:100840003C60DEF800407746D1F804C09C435FEA84
:100850008C3C00D51C433C60084F083F3C68D1F8F5
:1008600004C09C435FEACC3C00D51C433C60521C56
:10087000102AFFF42FAFBDE8F88F0000083C0140BC
:1008800044380240003001400000024000040240B1
:1008900000080240000C0240001002400014024018
:1008A00000180240001C02400AB18161704709042F
:1008B000FBE700000148806870470000300000201E
:1008C00070B5040025D094F83D00002520B984F8C7
:1008D0003C50204600F03AFB242084F83D0020687C
:1008E000016821F0010101602068016841F40041C4
:1008F00001602068016821F40041016000F08EFC75
:100900004D4A6168914201D84C4900E04C49884207
:1009100001D2012070BD4B492368B0FBF1F15E6844
:1009200026F03F060E435E606368934206D94FF49B
:10093000967359434FF47A73B1FBF3F12368491C62
:100940001E6A26F03F06314319626168914210D851
:100950004900401EB0FBF1F2521CC2F30B02042A04
:1009600001D2042022E0B0FBF1F0401CC0F30B00E8
:100970001CE0A268F2B301EBC10303EB0116431EB6
:10098000B3FBF6F35B1C43F480431B0549D092B3E1
:1009900001EBC10202EB0111401EB0FBF1F0401C63
:1009A000C0F30B0040F4804040F400402168CA6965
:1009B0004CF6FF739A431043C861D4E90710014312
:1009C0002068026822F0C00211430160D4E90301EB
:1009D00001432068826848F2FF339A4311438160E3
:1009E000D4E9050108432168CA6822F0FF021043D8
:1009F000C86001E00EE016E02068016841F00101E6
:100A000001602564202084F83D00256384F83E5071
:100A1000002070BD01EB4106431EB3FBF6F35B1CE7
:100A2000B3E70120C2E701EB4101401EB0FBF1F04A
:100A3000401CC0F30B00B7E7A086010080841E00B5
:100A400000093D0040420F002DE9F84F1F46904637
:100A50008A460446DDF82890FFF72CFF054694F8F7
:100A60003D00202875D1192301226C4920460095AC
:100A700001F05EFA0028F5D194F83C00012868D016
:100A8000012084F83C0020680168C90703D101688F
:100A900041F0010101602068016821F400610160FA
:100AA000222084F83D00102084F83E0000262664B1
:100AB000C4F824806785608D20855948E0622B4604
:100AC0004A465146204601F0CBF8002878D1208DC7
:100AD000544F68B1012814D002282068016816D04C
:100AE00041F480610160206841698069009087E07D
:100AF0002068416981690091016841F400710160D9
:100B00007EE02068016821F480610160F0E721F453
:100B1000806101602068016841F40061E2E7032818
:100B200048D801280AD0022814D04B460022394662
:100B30002046009501F0FCF9D8BB27E02A4649463B
:100B4000204601F074FAA0BB20680069616A087051
:100B50004DE061E04B46002239462046009501F009
:100B6000E7F930BB2068016841F40071016020683A
:100B70000069616A0870606A401C6062218D491ECC
:100B80002185618D491E618521682EE020680168FC
:100B900021F48061016020680069616A0870606A00
:100BA000401C6062208D401E2085608D401E608547
:100BB000D0E705E02A464946204601F038FA10B150
:100BC0000120BDE8F88F20680069616A0870606ADA
:100BD000401C6062218D491E2185618D491E618501
:100BE00021684A69D24352070AD409690170606AD0
:100BF000401C6062208D401E2085608D401E6085F7
:100C0000208D00288BD1202084F83D0084F83E60A0
:100C100084F83C600020D4E70220D2E702001000F4
:100C20000000FFFF040001002DE9F84F1F46904629
:100C30008A460446DDF82890FFF73CFE054694F806
:100C40003D0020287FD119230122404920460095EC
:100C500001F06EF9002876D194F83C00012872D09A
:100C6000012084F83C0020680168C90703D10168AD
:100C700041F0010101602068016821F40061016018
:100C8000212084F83D00102084F83E0000262664D0
:100C9000C4F824806785608D20852D48E0622B464E
:100CA0004A465146204601F051F890B92068416902
:100CB0008069009036E02A464946204601F0EAF96C
:100CC00050B1206C042804D12068016841F40071FF
:100CD00001600120BDE8F88F606A21680078086132
:100CE000606A401C6062618D491E6185218D491ECC
:100CF00089B2218522685369DB435B070BD451B16C
:100D000000781061606A401C6062608D401E6085E2
:100D1000208D401E20852A464946204601F0E2F8F3
:100D20000028CED1208D0028C5D154F83D0B016894
:100D300041F400710160202004F81E09E67766770F
:100D40000020C7E7FFE70220C4E700000200100010
:100D50000000FFFF2DE9FF4F83B09A46DDE91197B0
:100D600093460446DDF84080FFF7A4FD054694F85D
:100D70003D00202870D11923012271492046009599
:100D800001F0D6F80028F5D194F83C00012863D092
:100D9000012084F83C0020680168C90703D101687C
:100DA00041F0010101602068016821F400610160E7
:100DB000222084F83D00402084F83E00002626646E
:100DC000C4F82480A4F82A90608D20855D48E062F4
:100DD000CDE9007553465A462046049901F004F8BF
:100DE00000287CD1208DD0B1012821D00228206894
:100DF00024D0416980690090208D032869D801289A
:100E00002BD0514902283B464FF00002009559D0A3
:100E10008846204601F08CF8002860D13CE020682C
:100E2000416981690091016841F40071016077E0D6
:100E30002068016821F480610160F0E7016821F415
:100E4000806101602068016841F4006101602068F0
:100E500041698069009063E06FE02A463946204688
:100E600001F0E5F898BB20680069616A08704EE0FF
:100E70002068016841F40071016020680069616ABE
:100E80000870606A401C6062218D491E2185618D59
:100E9000491E6185216838E02068016821F480617D
:100EA000016020680069616A0870606A401C6062C5
:100EB000208D401E2085608D401E60853B460022AF
:100EC00041460095204601F033F800B9D0E706E02E
:100ED000FFE72A463946204601F0A9F818B101205B
:100EE00007B0BDE8F08F20680069616A0870606A29
:100EF000401C6062218D491E2185618D491E6185DE
:100F000021684A69D24352070AD409690170606AAC
:100F1000401C6062208D401E2085608D401E6085D3
:100F2000208D00287FF468AF202084F83D0084F8ED
:100F30003E6084F83C600020D2E70220D0E7000049
:100F4000020010000000FFFF0400010010B586B091
:100F5000044614216846FFF76DF91349206888425A
:100F600020D11248016841F0020101600068694621
:100F700000F002000590C020009012200190012096
:100F8000029003200390042004900948FFF794FB8B
:100F900006481030016841F400110160006800F457
:100FA0000010059006B010BD0054004030380240DB
:100FB0000004024002488168027811448160704751
:100FC000300000200B4810B5016841F40071016049
:100FD000016841F480610160016841F48071016041
:100FE000032000F06FF8002000F006F800F024F86D
:100FF000002010BD003C024070B50D4D04464FF47A
:101000007A712878B1FBF0F00A490968B1FBF0F079
:1010100000F0FAFA48B9102C07D200222146501EDF
:1010200000F030F800206C6070BD012070BD000041
:10103000300000203C0000200A4808B5016841F457
:1010400080410160006800F4804000900548001F66
:10105000016841F080510160006800F0805000900C
:1010600008BD000044380240002809DB00F01F02E0
:10107000012191404009800000F1E020C0F80011FA
:1010800070470000F0B40E4B1B680C46C3F30223FC
:10109000C3F10705042D00D90425191D072901D224
:1010A000002300E0DB1E012606FA05F1491E21405F
:1010B00099409E40761E16403143F0BC01F085BB3E
:1010C0000CED00E0064900F0070208684FF6FF0348
:1010D000184040EA0220034A1043086070470000AD
:1010E0000CED00E00000FA052DE9F0470E46050082
:1010F00065D0DFF81481D8F80000F7B200F00700DF
:10110000B04207D288F80070D8F8000000F007005D
:10111000B04254D128683D4C810712D5400703D511
:10112000206840F4E05020602878000703D520684C
:1011300040F4604020602068A96820F0F000084377
:1011400020602878C0072DD0304968680839012808
:1011500012D0022813D0032811D00968890700296A
:101160002DDA216821F0030101432160FFF7A2FB82
:10117000814641F2883A0EE009688903EFE7096881
:101180008901ECE7FFF796FBA0EB0901514502D975
:101190000320BDE8F0872068696800F00C00B0EB20
:1011A000810FEFD1D8F80010404601F00701B1429D
:1011B00007D90770006800F00700B04201D0012095
:1011C000E7E72878400705D52068E96820F4E05073
:1011D000084320602878000706D52068296920F494
:1011E000604040EAC100206000F028F82168084A09
:1011F000C1F30311515CC840064908600648006805
:10120000FFF7FAFE0020C4E7003C02400838024025
:10121000542900083C0000203400002004480549FF
:1012200000680968044AC1F38221515CC8407047D4
:101230003C0000200838024064290008154810B519
:10124000006810F00C02144813D04110042A0FD08B
:10125000082A0ED10F4C241F2268236802F03F0297
:101260005B0207D52068C0F38810A0FB010106E0EF
:10127000084610BD2168C1F38811A1FB00010023BD
:10128000FEF7A0FF2168C1F30141491C4900B0FBF2
:10129000F1F010BD083802400024F4002DE9F84FA9
:1012A00004006ED02078DFF84C93C007A9F1040544
:1012B0004AD009F104000168C1F38101012908D075
:1012C0000068C0F3810002280AD1D9F8000040026A
:1012D00006D52868800337D560680028E1D033E060
:1012E0006068B0F5803F10D0B0F5A02F286810D00E
:1012F00020F480302860286820F48020286060680E
:10130000A8B1FFF7D7FA06460DE0286840F4803010
:10131000F4E740F480202860F7E700BFFFF7CAFA3F
:10132000801B642873D828688003F7D50CE0FFF78A
:10133000C1FA064605E000BFFFF7BCFA801B64282F
:10134000F0D828688003F7D42078DFF8AC828007D3
:101350004FF0000A3ED5A748001D016811F00C0FA0
:1013600008D00068C0F3810002280BD1D9F8000032
:10137000400207D42868800716D5E068012800D10C
:1013800012E033E1E068B8B10120C8F80000FFF7CF
:1013900091FA064605E000BFFFF78CFA801B022891
:1013A000C0D828688007F7D52868216920F0F800A0
:1013B00040EAC10028600DE0C8F800A0FFF77AFA03
:1013C000064604E0FFF776FA801B02281FD828683B
:1013D0008007F7D42078000722D5864F87486169B7
:1013E000703771B101210160FFF764FA064604E02D
:1013F000FFF760FA801B022809D838688007F7D504
:101400000EE0C0F800A0FFF755FA064605E082E0BE
:10141000FFF750FA801B02287DD838688007F7D480
:101420002078400768D5DFF8CCB100270BF13C0BE2
:10143000DBF80000C0000BD4DBF8001041F0805155
:10144000CBF80010DBF80000012700F0805000907E
:101450006B4E3068C00510D4306840F48070306046
:10146000FFF728FA009005E0FFF724FA0099401AE8
:10147000022850D83068C005F6D55E4EA0686C369C
:1014800001280FD00528306810D020F0010030600E
:10149000306820F004003060A068B8B1FFF70AFAA5
:1014A00000900FE0306840F00100F4E740F00400E5
:1014B0003060F7E7FFF7FEF90099411A41F28830F2
:1014C000814266D830688007F4D50EE0FFF7F2F964
:1014D000009007E0FFF7EEF90099411A41F28830D9
:1014E000814256D830688007F4D42FB1DBF8001061
:1014F00021F08051CBF80010A069C8B33D49091D07
:101500000968C1F3810102294AD00228504607D058
:10151000C8F8600000E03CE0FFF7CCF904463BE08F
:101520004746C8F86000FFF7C5F9064605E000BF6A
:10153000FFF7C0F9801B02282BD828688001F7D458
:10154000D4E907010843A16A2E4A490802EB014188
:10155000626A41EA8211084394F82C1040EA016162
:10156000C9F8001001203866FFF7A4F9044606E028
:101570003EE000BFFFF79EF9001B022809D828684B
:101580008001F7D534E000BFFFF794F9001B022873
:1015900002D90320BDE8F88F28688001F4D427E041
:1015A0000128F7D0D9F80000E26900F480019142E7
:1015B0001CD1226A00F03F01914217D147F6C07159
:1015C000626A0140B1EB821F10D1A26A4FF0FF3373
:1015D00000F4403103EB5202B1EB024F06D194F814
:1015E0002C1000F07060B0EB016F01D00120D1E74A
:1015F0000020CFE70438024000004742800E4742F7
:10160000007000400000FFFF10B5401EB0F1807F69
:1016100001D3012010BD4FF0E02460610F2160175D
:1016200001F0D3F80020A06107202061002010BD48
:101630007047704770B590F83C20012A32D00124E1
:1016400080F83C40022280F83D2003685A689D687B
:1016500022F070060A6832435A60134B02689A42BD
:1016600014D0B2F1804F11D0104B9A420ED0104BD3
:101670009A420BD00F4B9A4208D00F4B9A4205D09A
:101680000E4B9A4202D00E4B9A4204D1496825F083
:1016900080031943916080F83D40002180F83C10A0
:1016A000084670BD022070BD0000014000040040EB
:1016B00000080040000C00400004014000400140D0
:1016C0000018004010B5040003D094F83D0010B19C
:1016D00007E0012010BD002084F83C00204600F007
:1016E0001FF8022084F83D00211D206800F0C4FE90
:1016F000012084F8460084F83E0084F83F0084F816
:10170000400084F8410084F8420084F8430084F8E3
:10171000440084F8450084F83D00002010BD00001E
:1017200008B500680B49884212D10B48016841F0A6
:10173000020101600068002200F0020000901146E2
:101740001D20FFF79FFCBDE808401D20FFF78CBC63
:1017500008BD0000000400404038024090F83D10F1
:10176000012901D001207047022180F83D10016855
:10177000CA6842F00102CA6000681149884214D068
:10178000B0F1804F11D00F4988420ED00E498842E7
:101790000BD00E49884208D00D49884205D00D492A
:1017A000884202D00C49884204D1816801F00701C7
:1017B000062903D0016841F0010101600020704753
:1017C000000001400004004000080040000C004000
:1017D00000040140004001400018004070B504467C
:1017E00090F83C000025012817D0012684F83C60C1
:1017F000022084F83D002068826822F0770222F4FB
:101800007F4282600868502838D00DDC20284FD0F5
:1018100005DC90B3102811D14AE0022070BD3028B9
:1018200046D040280AD13BE060282FD070280DD048
:10183000B0F5805F03D0B0F5005F12D0012584F8C9
:101840003D60002084F83C00284670BDCB68D1E99B
:101850000121206800F074FE2068816841F0770162
:1018600009E0CB68D1E90121206800F069FE206819
:10187000816841F480418160E1E719E0CA68496804
:10188000206800F06FFE5021206806E0CA684968B1
:10189000206800F078FE6021206800F05BFECEE753
:1018A000CA684968206800F05DFE40212068F4E7BE
:1018B000226801461046F0E7704770B5044600689C
:1018C00001694FF00005C943890715D4C168C943B0
:1018D000890711D4E91E0161012020772068806901
:1018E0008007204602D0FFF7E7FF04E000F098F8F9
:1018F000204600F096F8257720680169C94349071A
:1019000017D4C168C943490713D46FF004010161BA
:10191000022020772068806910F4407F204602D0A2
:10192000FFF7CAFF04E000F07BF8204600F079F8EA
:10193000257720680169C943090716D4C168C943DE
:10194000090712D46FF00801016104202077206894
:10195000C0698007204602D0FFF7AEFF04E000F028
:101960005FF8204600F05DF8257720680169C943DB
:10197000C90617D4C168C943C90613D46FF0100152
:101980000161082020772068C06910F4407F20465C
:1019900002D0FFF791FF04E000F042F8204600F08B
:1019A00040F8257720680169C943C90708D1C16893
:1019B000C943C90704D1891E0161204600F032F8ED
:1019C00020680169C943090609D4C168C9430906E9
:1019D00005D46FF0800101612046FFF729FE2068E1
:1019E0000169C943490609D4C168C943490605D4F8
:1019F0006FF040010161204600F015F82068016990
:101A0000C94389060BD4C168C943890607D46FF05E
:101A1000200101612046BDE87040FFF70ABE70BD9D
:101A20007047704770477047FEE700002DE9FF4F91
:101A300083B00F461D46DDF840800024A146A34632
:101A40004FEA480000F050FF8146B9F1000F03D182
:101A5000042007B0BDE8F08F4C4632207900012306
:101A600005AA00900398FFF7DFF806460EB10120A3
:101A7000EFE732204FEA48030090012000EB4701D6
:101A800022462248FEF7E0FF06460EB10120E0E7BD
:101A900011208DF8080020788DF809000722022116
:101AA00002A8FEF734FD8346641C2078584506D012
:101AB000484600F0A9FE4FF000090220C9E714F8DB
:101AC000010C28704FF0010A17E0641C0722012165
:101AD0002046FEF71CFD8346641C6D1C207858458B
:101AE00006D0484600F090FE4FF000090220B0E713
:101AF00014F8010C28700AF1010AC245E5DB4846DA
:101B000000F082FE4FF000090020A2E7480000200C
:101B10002DE9FF4707460C4615461E4603954FF034
:101B20000008C146C24632206100012303AA00908A
:101B30003846FFF779F8824632200090012000EB0A
:101B40004401022302AA3846FEF77EFF8146B9F11E
:101B5000000F02D1BAF1000F03D0012004B0BDE89C
:101B6000F087012000EB4400C0B28DF804009DF81E
:101B700008008DF805000722022101A8FEF7C7FC26
:101B800080469DF80900404501D00220E6E79DF817
:101B9000080030700020E1E72DE9F84F0F4693462A
:101BA0001E46DDF828804FEA4801881C00F09CFEA4
:101BB000054615B90420BDE8F88F2C467806000EBE
:101BC0002070641C84F800B0641C30782070641CA1
:101BD000072203212846FEF79AFC20704FF00109E6
:101BE0000CE0641C761C307820700722012120460E
:101BF000FEF78DFC6070641C09F10109C145F0DB42
:101C0000322000904FEA4800431C79006A1C0748C4
:101C1000FFF70AF88246BAF1000F01D00120CAE7A7
:101C2000284600F0F1FD00250020C4E74800002010
:101C300001684A69D24352050FD46FF480624A6149
:101C4000002140F8301F202242738173026942F064
:101C500004020261017301207047002070470000F8
:101C60002DE9F84F0446C06A1E4693460D4621688A
:101C70000A6842F480620A60082807D0012805D06B
:101C800010F5803F02D0206B112804D12068016834
:101C900041F4807101604FF001195B460022494612
:101CA0002046009600F044F94FF4007840B12068D7
:101CB0000068C00501D5C4F840800320BDE8F88F56
:101CC0002069DFF884A0B0F5804F0FD0062021688E
:101CD00000EAD51747F0F000086133465A460AF18A
:101CE0000601204600F058F958BB03E0E8B240F086
:101CF00001001CE02168E8B2086133465A465146AB
:101D0000204600F049F9E0B92068416981690091F5
:101D1000016841F4807101605B460022494620461B
:101D2000009600F005F90028C1D147F0F1002168C4
:101D3000086133465A465146204600F02DF90028E6
:101D4000BCD00120BAE7000002000100F8B504464B
:101D5000C06A1E460D461746082807D0012805D040
:101D600010F5803F02D0206B122804D12068016852
:101D700041F480710160134600224FF001112046AA
:101D8000009600F0D5F840B120680068C00502D583
:101D90004FF4007020640320F8BD2069B0F5804F37
:101DA0000ED00620216800EAD51040F0F00008614E
:101DB00033463A460B49204600F0EEF878B902E087
:101DC00005F0FE0000E0E8B22168086105493346ED
:101DD0003A46891F204600F0DFF80028DCD00120B9
:101DE000F8BD0000080001002DE9F84F0446006826
:101DF00089460B9D01689846174641F48061016051
:101E00002068016841F48071016000954FF0011B6A
:101E10000022594620460A9B00F08AF84FF4007AC7
:101E200040B120680068C00501D5C4F840A0032077
:101E3000BDE8F88F216809F0FE0008612B462849AB
:101E400020460A9A00F0A8F8F0BB20684169806932
:101E500000902A4620460A9900F01CF940B1206CF7
:101E600004283AD12068016841F40071016034E02F
:101E7000FEB2B8F1010F09D02168380A08612A467C
:101E800020460A9900F006F90028E8D1206806618A
:101E90002A4620460A9900F0FDF80028DFD1206884
:101EA000016841F480710160009500225946204686
:101EB0000A9B00F03DF80028B3D1216809F0FF002B
:101EC00040F00100086100E007E02B46044920468D
:101ED0000A9A00F061F80028AAD00120A8E70000C3
:101EE0000200010070B516460D4604460DE020467E
:101EF000FFF79EFE08B1012070BD681C05D0FEF7FB
:101F0000D9FC801BA84207D835B120684069C0437E
:101F10004007ECD4002070BD002044F8300F202191
:101F20006173A073216941F0200121612073E2E710
:101F30002DE9F0471E4690460D460446C1F307477B
:101F4000DDF8209008E0701C06D0FEF7B3FCA0EB93
:101F50000900B0420FD876B12068012F18D08069EF
:101F600025EA00000004000C14D000214145EAD00D
:101F70000020BDE8F087002044F8300F2021617375
:101F8000A073216941F02001216120730120F0E755
:101F90004069E5E70121E9E72DE9F0479A469146D6
:101FA0000E46044600254FF02008C1F3074725E000
:101FB00020684069C043400514D42068016841F49A
:101FC0000071016021686FF480604861256384F8C6
:101FD0003D8084F83E50206C40F00400206484F87A
:101FE0003C501FE0B9F1FF3F08D0FEF763FCA0EBC7
:101FF0000A0149450CD8B9F1000F09D02068012F1A
:1020000013D0806926EA00000004000C0BD0CFE753
:1020100044F8305F84F80D80A573206940F02000FB
:10202000206125730120BDE8F0874069EAE72DE9CA
:10203000F041002590460E460446202717E04069EF
:10204000C043C0060CD454F8301B6FF01000486138
:1020500044F810596777A577206A2062257717E042
:10206000FEF728FCA0EB0800B04208D83EB120687B
:102070004169C9434906E2D40020BDE8F08144F833
:10208000305F6773A573206940F0200020612573DD
:102090000120F2E770B516460D4604460DE02046D5
:1020A000FFF7C6FD08B1012070BD681C05D0FEF722
:1020B00001FC801BA84207D835B120684069C043A5
:1020C0000006ECD4002070BD002044F8300F202121
:1020D0006173A073216941F0200121612073E2E75F
:1020E00010B52DED048B4C48807920F01800083095
:1020F000494988710846807920F00700801C887162
:102100000846C07920F070005030C8710846C07988
:1021100020F00F00401CC8710846007A20F0300003
:10212000103008720846007A20F0C0008030087233
:10213000FEF788FA04461CB12046BDEC048B10BDA6
:10214000354991F8341001F00C0140F26D1202EBA8
:102150004101314A92F8362001EB5210FEF7E4F8C3
:1021600041EC190B9FED2D0B53EC102BFEF76DF886
:1021700041EC180BFEF7E9F82A490860264890F868
:10218000340000F00C0040F26D1101EB40002249D8
:1021900091F8361000EB5110234908601E4890F862
:1021A000350041F2CC01081A00EE100AB8EE400AE0
:1021B0001C48D0ED000A80EE201AB6EE000A31EE7F
:1021C000000ABCEEC00A10EE100A00F6F870C0F368
:1021D000071011494872084690F8350040F6C411BE
:1021E000081A00EE100AB8EE400A0E48D0ED000AB8
:1021F00080EE201AB6EE000A31EE000ABCEEC00AEC
:1022000010EE100AC0F3071003498872FEF7D4F9E4
:102210000446204691E70000E40000200000000092
:1022200000408F40040000200800002008B500BFD7
:10223000002000900E48006840F080000C490860C3
:102240000846006800F08000009000BF00BF00BF9B
:10225000002000900846006840F002000860084630
:10226000006800F00200009000BF00BF08BD000041
:102270003038024010B50B480B4908600B484860E5
:10228000002109488160C1604FF480410161002153
:1022900041618161C1610162FEF712FB08B1FEF785
:1022A000D0F910BD0054004048000020A086010075
:1022B00000B587B00020039004900590069001902F
:1022C000029015481549086042F20F7048600021DD
:1022D0001248816042F2CF01C16000210161816139
:1022E000FFF7F0F908B1FEF7ACF94FF48050039016
:1022F00003A90A48FFF772FA08B1FEF7A2F9002015
:102300000190029001A90548FFF794F908B1FEF782
:1023100098F907B000BD0000000400409C000020B8
:10232000F0B504460D46002020460021118000BF74
:102330000BE006881788BE4202DD068816801970F9
:102340000688761C06804E1CF1B2A942F1DDF0BD74
:10235000FEE7F0B504460D46002020464FF6FF711B
:10236000118000210BE006881788BE4202DA068839
:10237000168019700688761C06804E1CF1B2A942A0
:10238000F1DDF0BD704770477047FEF713BE0000E7
:1023900000B593B0302107A8FDF74CFF142102A827
:1023A000FDF748FF00BF002001902448006840F07E
:1023B0008050224908600846006800F08050019073
:1023C00000BF00BF00BF002001901D48006840F41E
:1023D00080401B4908600846006800F48040019076
:1023E00000BF00BF012007900004089002200D905C
:1023F00041050E9104210F91A82110910221119104
:102400000421129107A8FEF749FF08B1FEF719F958
:102410000F20029002200390002004904FF4A0505F
:1024200005904FF480500690052102A8FEF75CFE4F
:1024300008B1FEF706F913B000BD000040380240B5
:10244000007000400548016841F4700101600349D3
:102450004FF00060803908607047000088ED00E0B0
:1024600010B50348FFF729FA02490120087010BD92
:102470009C00002012000020F0B50268254C264D7B
:10248000264E274F274B4FF0804CA04209D0604585
:1024900007D0A84205D0B04203D0B84201D098423C
:1024A00004D122F0700E4A6842EA0E02A0421BD00C
:1024B000604519D0A84217D0B04215D0B84213D009
:1024C000984211D0184DA8420ED0184DA8420BD0FA
:1024D000174DA84208D0174DA84205D0164DA84266
:1024E00002D0164DA84203D122F44075CA682A438F
:1024F0004D6922F080022A4302608A68C2620A683B
:102500008262A04201D0984201D109690163012190
:102510004161F0BD0000014000040040000800409F
:10252000000C004000040140004001400044014014
:102530000048014000180040001C004000200040FE
:1025400010B5846842EA032224F47F440A432243FC
:10255000826010BD826822F070020A4342F00701D7
:102560008160704710B5036A046A24F001040462B4
:10257000846924F0F00444EA021423F00A020A43B6
:102580008461026210BD10B5036A23F01003036278
:102590008369046A23F4704343EA023224F0A003FF
:1025A00043EA01118261016210BD000010B5144BB5
:1025B000144A03211448FFF7B3FE144B144A0321B5
:1025C0001148FFF7C6FE12480088052809DA0122E3
:1025D00011031048FEF768F90F480078401C0E49B7
:1025E000087008480088552809DD01225103094870
:1025F000FEF75AF909480078401C0849087010BDD8
:1026000028000020240000201A00002029000020BB
:1026100026000020000C02401000002011000020C5
:1026200038B50220184B2A22082100901748FFF7DE
:10263000FDF9044614482A3890F82B0012492A392B
:1026400091F82A1000EB012000EE100AF8EEC00A03
:102650000D482A3890F83500C0EB001000EE100A43
:10266000B8EEC00A0A4890ED001AF1EE001A21EE09
:10267000211A01EE200ABCEEC00A10EE100A05492C
:102680000880204638BD00000E01002048000020D0
:102690000400002018000020F8B5002400250027C1
:1026A00000261E201B4B0C22082100901A48FFF721
:1026B000BDF91A4908700846007810B1084600783C
:1026C000F8BD144D00201649086000241DE068780C
:1026D000297800EB01271348006878434FF47A719A
:1026E000B0FBF1F60B480C3890F8350006440E4963
:1026F00021F81460084630F81400094909680844B4
:1027000007490860AD1C601CC4B20F2CDFDB002041
:10271000D6E70000F0000020480000200000002064
:1027200014000020080000201C01002038B5022001
:10273000044B3222082100900348FFF777F9044642
:10274000204638BD16010020480000202DE9F8433E
:102750000027B94600240025DFF860800620184BCA
:102760002C22082100901748FFF760F9064616B1A1
:102770003046BDE8F883124D00271AE068782978C2
:1027800000EB01294FF4BF7009FB00F04FF47A71A0
:10279000B0FBF1F442F21070604340F6E441091BD3
:1027A000B0FBF1F0A8F8000008F10208AD1C781C9D
:1027B000C7B2032FE2DB3046DBE700001A0000203F
:1027C0001001002048000020FEE70907090E00283C
:1027D00004DB00F1E02080F80014704700F00F00E7
:1027E00000F1E02080F8141D704702E008C8121FB5
:1027F00008C1002AFAD170477047002001E001C1EA
:10280000121F002AFBD1704710B5002821D0114BB0
:102810000022001F196803E0814203D80A46496874
:102820000029F9D152B11368841A9C4204D100687E
:1028300018441060104602E0506000E0186039B1A2
:1028400002680B1A934203D10B681A44026049686C
:10285000416010BD40000020FEF7B4FBFFF798FD7B
:10286000FFF7E4FCFFF706FDFFF722FD1948FEF72E
:1028700075FFFFF735FC184908701848007920F0FB
:1028800008000830154908710B1D0422082114485E
:10289000FFF73EF9104908701AE012480078012845
:1028A00016D100200F490870FFF7F6FE0A4908709C
:1028B000FDF750FEFFF7B4FE07490870FFF746FF2B
:1028C00005490870FFF772FEFFF730FF02490870F4
:1028D000E3E700009C00002000000020E40000204E
:1028E0004800002012000020F0B50B30154D20F0FC
:1028F00007010024144A0FE003688B420BD38B427C
:1029000005D95E1A43184768C3E9006700E04368C9
:10291000136002C004E0021D10680028ECD12046BC
:10292000002802D1286808B10020F0BD064A0748F7
:102930001060074A121A22F00702C0E900240120A1
:102940002860D7E744000020400000204401002018
:10295000400300200000000000000000010203040A
:102960000607080900000000010203048C29000882
:102970000000002048000000EA270008D4290008D1
:1029800048000020F8060000FA27000800000000B8
:102990000000000000000000000000000000000037
:1029A0000000000000000000000000000000000027
:1029B0000000000000000000000000000100000016
:1029C00010000000000000000024F40000000000DF
:0429D0000000000003
:040000050800018965
:00000001FF
